:10000000E4C1000013C2000011C200000FC20000D2
:100010000DC200000BC2000009C2000007C20000B0
:1000200005C200000C94E11F0C94E11F0C94E11F29
:10003000FDC100000C94EB1FF9C10000F7C10000E6
:10004000F5C10000F3C10000F1C10000EFC10000E4
:10005000EDC10000EBC10000E9C100000C94731E6B
:10006000E5C100000C94491E0C941F1EDFC1000066
:10007000DDC10000DBC10000D9C10000D7C1000014
:10008000D5C10000D3C10000D1C10000CFC1000024
:100090000C94F51D0C94CB1DC9C100000C94BD1E21
:1000A000C5C10000C3C10000C1C10000BFC1000044
:1000B000BDC10000BBC10000B9C10000B7C1000054
:1000C000B5C10000B3C10000B1C100000C94A11D76
:1000D0000C94771DABC10000A9C10000A7C10000AE
:1000E000A5C1000007634236B79BD8A71A396856E6
:1000F00018AEBAAB558C1D3CB7CC5763BD6DEDFD4A
:10010000753EF6177231BF000000803F0800000006
:10011000BE922449123EABAAAA2ABECDCCCC4C3EFC
:1001200000000080BEABAAAAAA3E00000000BF00EB
:100130000000803F0000000000084178D3BB4387E7
:10014000D1133D190E3CC3BD4282AD2B3E68EC82FB
:1001500076BED98FE1A93E4C80EFFFBE01C4FF7F80
:100160003F00000000001F1C1F1E1F1E1F1F1E1F20
:100170001E556E6B6E6F776E206572726F720041E6
:10018000204D4946415245205049434320726573F2
:10019000706F6E6465642077697468204E414B2EE1
:1001A00000546865204352435F4120646F657320AB
:1001B0006E6F74206D617463682E00496E76616C99
:1001C000696420617267756D656E742E00496E7486
:1001D00065726E616C206572726F7220696E207438
:1001E000686520636F64652E2053686F756C6420AA
:1001F0006E6F742068617070656E2E0041206275AC
:1002000066666572206973206E6F7420626967206C
:10021000656E6F7567682E0054696D656F75742023
:10022000696E20636F6D6D756E69636174696F6E61
:100230002E00436F6C6C6973696F6E206465746522
:10024000637465642E004572726F7220696E20635C
:100250006F6D6D756E69636174696F6E2E00537595
:1002600063636573732E0000000A0B02090C0D0E08
:100270000807030401000000000000000000000067
:10028000000000000000000000000000000000006E
:10029000000000121110000000000000000000002B
:1002A000000000000000000000000000000000212D
:1002B00000240027002A002D003000330001010037
:1002C00000040107010A0131363A35363A3036006A
:1002D0004F6374203239203230323000526561640D
:1002E000696E67206661696C65643A2000417574C7
:1002F00068656E7469636174696F6E206661696CAC
:1003000065643A2000000020002300260029002C0C
:10031000002F003200000100000301060109010066
:10032000002200250028002B002E0031003400029E
:10033000010000050108010B010505050507050879
:10034000080808020202020A0A0808040404040158
:10035000010101010101010303030303030303047A
:100360000707070C0C0C0C0C0C0C0C02020202060A
:10037000060606060606060B0B0B0B0B0B0B0B01FA
:1003800002102020080810204010204080020102A6
:10039000010804020101020408102040808040206E
:1003A00010080402018004020180402010080402A9
:1003B0000108040201010204081020408001020427
:1003C0000810204080004B20052C11241FBECFEFC9
:1003D000D1E2DEBFCDBF00E00CBF19E0A0E0B2E08B
:1003E000E4ECFBE600E00BBF02C007900D92A83ED4
:1003F000B107D9F72DE0A8EEB9E001C01D92AB3FDF
:10040000B207E1F711E0C4EED1E000E006C02197A9
:100410000109802FFE010E94B830C33ED10780E061
:100420000807A9F70E94CB210C94D135E9CDFC0136
:10043000A089B18982E08C93A485B5851C92A6859C
:10044000B7858FEC8C93108EA489B58986E08C9348
:10045000A289B3898C9180618C93A289B3898C9194
:1004600088608C93A289B3898C9180688C93028870
:10047000F389E02D80818F7D808308951F93CF9332
:10048000DF9311E0180F2091D60D1217A1F1C09142
:10049000D70DD091D80D215070E060E061F08F3F12
:1004A000F1F430E050E040E06FEF7FEF80E090E06B
:1004B0000E94E52DB901FE014091D20D5091D30D5E
:1004C000CF018C1B9D0B8417950798F44081469FA4
:1004D000C001479F900D112490833196EDCF812F5D
:1004E00090E0982F88270197622F70E00E9491304A
:1004F000E2CF1093D60DDF91CF911F9108954F92C7
:100500005F926F927F928F929F92AF92BF92FF9273
:100510002091D00D3091D10D8217930708F043C080
:100520002B0166247724852E962EA72EBB24B82D6A
:10053000A42F2091D60DF42C222391F0E22FF0E08D
:10054000E49DD001E59DB00DF49DB00D1124FB2E6E
:10055000289D40011124B92D249F90011124A32F1F
:10056000E091DC0D2091D70D3091D80D5091D90D2F
:10057000E51323C0FC01EE0FFF1F8E0F9F1F820F9C
:10058000931FE091D90DE80FF92FF11DF082E09152
:10059000DA0DE80FF92FF11DB0832091DB0D820FEA
:1005A000911DFC01A083FF90BF90AF909F908F9012
:1005B0007F906F905F904F900895880F991F880FDC
:1005C000991F820F931FE80FF92FF11D1082D9CFC9
:1005D000CF92DF92EF92FF920F931F93CF93DF930F
:1005E0000091D00D1091D10D0115110589F0033145
:1005F000110510F003E110E06B017C01D0E0C0E0D8
:10060000B701A601CE017BDF21960C171D07C1F7AC
:10061000DF91CF911F910F91FF90EF90DF90CF90DE
:100620000895CF92DF92EF92FF92CF93DF93B09134
:10063000EB0DA0E08111AB2F8091EC0D90E0880FC5
:10064000991FAC014B5F5C4FC090F10DD090F20D43
:10065000E090F30DF090F40D30E020E0FA01C59148
:10066000D491E881B90190E080E0EB23EA130AC05D
:100670002F5F3F4F6C157D058E059F0578F36FEF5B
:100680007FEFCB01DF91CF91FF90EF90DF90CF9084
:1006900008958CBD9DBD0895AF92BF92CF92DF9219
:1006A000EF92FF920F931F93CF93DF936C017B0127
:1006B0008B01040F151FEB015E01AE18BF08C017B8
:1006C000D10759F06991D601ED91FC910190F0812B
:1006D000E02DC6011995892B79F7C501DF91CF91DE
:1006E0001F910F91FF90EF90DF90CF90BF90AF9050
:1006F0000895089508950895FC01A089B1898C9109
:10070000A689B78982FD0FC09C91818D8F5F8F7301
:10071000228D821749F0A18DAE0FBF2FB11D5D96BE
:100720009C93818F08958C910895FC01538D448D85
:10073000252F30E0842F90E0821B930B541710F08C
:10074000CF96089501970895FC01918D828D981799
:1007500061F0A28DAE0FBF2FB11D5D968C91928D71
:100760009F5F9F73928F90E008958FEF9FEF0895A2
:10077000FC01918D828D981731F0828DE80FF11D6B
:10078000858D90E008958FEF9FEF0895FC01918D86
:10079000228D892F90E0805C9F4F821B91098F737F
:1007A0009927089587E49BE0F1DF21E0892B09F484
:1007B00020E0822F089584EE9BE0E8DF21E0892B82
:1007C00009F420E0822F089581E89CE0DFDF21E03A
:1007D000892B09F420E0822F0895FC01A48DA80F35
:1007E000B92FB11DA35ABF4F2C91848D90E0019673
:1007F0008F739927848FA689B7892C93A089B18993
:100800008C91837080648C93938D848D981306C033
:100810000288F389E02D80818F7D80830895EF9297
:10082000FF920F931F93CF93DF93EC0181E0888FAA
:100830009B8D8C8D98131AC0E889F989808185FF7A
:1008400015C09FB7F894EE89FF896083E889F9891C
:1008500080818370806480839FBF81E090E0DF911E
:10086000CF911F910F91FF90EF900895F62E0B8D71
:1008700010E00F5F1F4F0F731127E02E8C8D8E112C
:100880000BC00FB607FCFACFE889F989808185FF94
:10089000F5CFCE01A2DFF2CFEB8DEC0FFD2FF11DD6
:1008A000E35AFF4FF0829FB7F8940B8FEA89FB89D8
:1008B00080818062D0CFB3CF0F931F93CF93DF930C
:1008C0008C01D0E0C0E0F801EC0FFD1F64916623BD
:1008D00039F081E89CE0A3DF892B11F02196F3CF5A
:1008E000CE01DF91CF911F910F910895CF93DF93A8
:1008F000EC01888D8823B1F0AA89BB89E889F98940
:100900008C9185FD03C0808186FD0CC00FB607FC6D
:10091000F7CF8C9185FFF2CF808185FFEDCFCE019F
:100920005CDFEACFDF91CF91089580E090E0892BE2
:1009300021F04ADF81110E94000080E090E0892BC5
:1009400021F039DF81110E94000080E090E0892BC6
:1009500021F028DF81110E94000080E090E0892BC7
:1009600049F080E090E0892B29F00E94000081117D
:100970000C94000008958150823108F05AC0E82F8D
:10098000F0E08827E953FB4F8F4F0C94B830E70411
:10099000EB04D904DF04E3041905EE04F404F804BD
:1009A000FE04020506050C051005190514051A05B7
:1009B0001E05809180008F7780938000089580913C
:1009C00080008F7DF9CF80918000877FF5CF84B53F
:1009D0008F7784BD089584B58F7DFBCF8091B00063
:1009E0008F778093B00008958091B0008F7DF9CF0C
:1009F000809190008F77809390000895809190006F
:100A00008F7DF9CF80919000877FF5CF8091A000F6
:100A10008F778093A00008958091A0008F7DF9CFFB
:100A20008091A000877FF5CF809120018F77809300
:100A300020010895809120018F7DF9CF80912001C0
:100A4000877FF5CFCF93DF93282F30E0F901E95965
:100A5000FD4F8491F901E158FC4FD491F901E75C15
:100A6000FC4FC491CC2399F0811185DFEC2FF0E08D
:100A7000EE0FFF1FEB5FFC4FA591B491EC91ED23BE
:100A800081E090E009F480E0DF91CF91089580E06B
:100A900090E0FACF1F93CF93DF93282F30E0F90136
:100AA000E959FD4F8491F901E158FC4FD491F901C6
:100AB000E75CFC4FC491CC23A1F0162F81115BDFC2
:100AC000EC2FF0E0EE0FFF1FE15EFC4FA591B4911B
:100AD0008FB7F894EC91111108C0D095DE23DC9308
:100AE0008FBFDF91CF911F910895DE2BF8CFCF9369
:100AF000DF9390E0FC01E158FC4F2491875C9C4F10
:100B0000FC0184918823C9F090E0880F991FFC01B3
:100B1000E355FD4FA591B491FC01E15EFC4FC591F9
:100B2000D49161110DC09FB7F8948C9120958223C8
:100B30008C938881282328839FBFDF91CF910895CC
:100B4000623051F49FB7F8943C91822F80958323B3
:100B50008C93E8812E2BEFCF8FB7F894EC912E2B4E
:100B60002C938FBFEACF1F93CF93DF93182FEB0106
:100B700061E0BDDF209731F460E0812FDF91CF91FC
:100B80001F9188CFCF3FD10511F461E0F6CFE12F5F
:100B9000F0E0E959FD4FE491E150E23108F0B3C0D3
:100BA000F0E08827E952FA4F8F4F0C94B830E905EE
:100BB000F105F60500060A06830614061C0624063F
:100BC0002E063806420651065B06830665066F064A
:100BD000790684B5806884BDC7BDDF91CF911F9130
:100BE000089584B5806284BDC8BDF7CF8091800030
:100BF000806880938000D0938900C0938800EDCFF7
:100C000080918000806280938000D0938B00C0939D
:100C10008A00E3CF80918000886080938000D09329
:100C20008D00C0938C00D9CF8091B00080688093F4
:100C3000B000C093B300D1CF8091B00080628093A8
:100C4000B000C093B400C9CF8091900080688093B9
:100C50009000D0939900C0939800BFCF80919000EE
:100C6000806280939000D0939B00C0939A00B5CF90
:100C700080919000886080939000D0939D00C093F5
:100C80009C00ABCF8091A00080688093A0008091F1
:100C9000A0008F7B8093A000D093A900C093A800F0
:100CA0009CCF8091A00080628093A000D093AB0085
:100CB000C093AA0092CF8091A00088608093A0008A
:100CC000D093AD00C093AC0088CF809120018068A4
:100CD00080932001D0932901C09328017ECF809179
:100CE0002001806280932001D0932B01C0932A01C0
:100CF00074CF80912001886080932001D0932D01D2
:100D0000C0932C016ACFC038D1050CF03ECF34CF50
:100D100090917B00977F90937B00865380648093B3
:100D20007C0080917A00806480937A0080917A00C0
:100D300086FDFCCF809178009091790008953FB7AF
:100D4000F89480917F0A9091800AA091810AB091D5
:100D5000820A26B5A89B05C02F3F19F00196A11D58
:100D6000B11D3FBFBA2FA92F982F8827BC01CD01F5
:100D7000620F711D811D911D42E0660F771F881F54
:100D8000991F4A95D1F708950F931F93CF93DF933F
:100D900000D000D000D0CDB7DEB78091D70D9091B4
:100DA000D80D892B09F465C0CADF0091DD0D1091C3
:100DB000DE0D2091DF0D3091E00D601B710B820B79
:100DC000930B6C3271408105910570F3F89480911A
:100DD000D20D9091D30D9A838983E091D70DF09134
:100DE000D80DDF011196808189879091CE0DE09119
:100DF000E10DF091E20D8091E30D992309F444C0D7
:100E00009081982B98879081809589238F838F81FB
:100E10008C8388E08B8358856F8149853B812C8149
:100E200089819A81508347FD252F3A952083262F6B
:100E300039F0441F00C000006083000000C0F2CF02
:100E400038E04D9160830000019761F7F093E20D67
:100E5000E093E10D49873B832C839A8389837894BF
:100E60006EDF6093DD0D7093DE0D8093DF0D909348
:100E7000E00D29960FB6F894DEBF0FBECDBFDF910F
:100E8000CF911F910F9108959081982B9887908111
:100E9000809589238F838F818E8388E08D83588509
:100EA0006F8149853D812E8189819A81508347FDDB
:100EB000252F00C000C0208300C000C000C000C0BB
:100EC00000C060830000262F3A9541F0441F0000C7
:100ED00000C000C000C000C000C0E8CF38E04D91A5
:100EE00000C0608300C0019709F7F093E20DE09322
:100EF000E10D49873D832E83B0CF8F929F92AF92B1
:100F0000BF92CF92DF92EF92FF924B015C0117DF0D
:100F10006B017C0114DF6C197D098E099F09683E05
:100F2000734081059105B0F321E0821A9108A10870
:100F3000B10888EEC80E83E0D81EE11CF11C8114B4
:100F40009104A104B10431F7FF90EF90DF90CF90AE
:100F5000BF90AF909F908F9008952FB7F8946091B5
:100F60007B0A70917C0A80917D0A90917E0A2FBF46
:100F700008950F931F93F1DF6093EC0B7093ED0BCB
:100F80008093EE0B9093EF0B84EE9BE0F1DB97FFE9
:100F90001CC0E3DF0091EC0B1091ED0B2091EE0BE8
:100FA0003091EF0B601B710B820B930B0091E80BE0
:100FB0001091E90B2091EA0B3091EB0B6017710750
:100FC0008207930708F38FEF9FEF1F910F9108950A
:100FD000CF92DF92EF92FF92CF93CBDFFC0197FD90
:100FE0004BC08D32910521F0C0970A9708F03EC0A2
:100FF000C12CD12C7601C0E0E130F105D1F0ED3209
:10100000F105C1F1CF01C0970A9798F4AAE0B0E0CA
:10101000A70196010E94012E6F01FF0FEE08FF0845
:10102000C60ED71EE81EF91E80E3C81AD108E108D3
:10103000F10884EE9BE088DB9CDFFC01C0970A97F7
:10104000D8F2E130F105C1F2CC2341F0F094E09404
:10105000D094C094C11CD11CE11CF11CC701B60185
:10106000CF91FF90EF90DF90CF90089584EE9BE0BA
:101070006BDBB3CFC1E0DDCFC12CD12C7601EECF3D
:10108000CF92DF92EF92FF920F931F93CF93DF9354
:10109000CDB7DEB7C054D1400FB6F894DEBF0FBE57
:1010A000CDBF5BDF0091ED0D1091EE0D2091EF0DA6
:1010B0003091F00D6B017C01C01AD10AE20AF30AEB
:1010C00097018601003D17402105310590F480917C
:1010D000F50DC05CDE4F0FB6F894DEBF0FBECDBF7E
:1010E000DF91CF911F910F91FF90EF90DF90CF9004
:1010F00008956093ED0D7093EE0D8093EF0D909336
:10110000F00D1092E80D1092E70D1092E60D10927E
:10111000E50D1092E40D62E08091E90DE8DC61E0FC
:1011200070E080E090E0E9DE61E08091E90DDFDCD5
:1011300060E08091E90DAEDC8091EA0D855182304E
:1011400010F58BE291E10197F1F762E08091E90DF2
:10115000CEDC8091F60D90E08230910538F0880F5A
:10116000991F880F991F05970197F1F7F89480E070
:1011700058DA6F3F7F4F8F4F9F4F59F41092F50D04
:10118000789480E0A6CF64E170E080E090E0B5DE86
:10119000DCCF81E046DA6F3F7F4F8F4F9F4F71F377
:1011A0008E010F5F1F4F6E012FEBC21A2EEFD20A76
:1011B000780180E036DAF70160837183828393835C
:1011C00081E02FDAF7016483758386839783F8E0E3
:1011D000EF0EF11CEC14FD0461F7789430E020E090
:1011E000F801C080D180E280F3804481558166811E
:1011F0007781FFEFCF16DF06EF06FF0631F04F3F96
:101200008FEF58076807780719F41092F50DB9CFDA
:10121000F90183E0F595E7958A95E1F7EC51F24FF6
:101220008081880FC416D506E606F70610F1808384
:101230002F5F3F4F085F1F4F2832310589F64091DD
:10124000E80D2091E40D8091E50D280F3327331F21
:101250008091E60D280F311D8091E70D820F932FAD
:10126000911D99274817190681F681E08093F50DA5
:1012700030CF8160DCCFBC016E5F7F4FDC01ED9130
:10128000FC910190F081E02D40E0199591E08111F1
:1012900090E0892F08958430F1F050F4813091F07E
:1012A00030F1823091F0833099F081E791E0089538
:1012B0008630B9F098F08730B9F08F3FB1F78FE7FB
:1012C00091E0089586E492E0089582E392E0089523
:1012D00088E192E008958CEF91E008958DEC91E023
:1012E00008958BEB91E0089581EA91E008958EE5F1
:1012F00092E0089508958EBD00000DB407FEFDCF65
:101300008EB50895DF92EF92FF920F931F93CF93C4
:10131000DF937C01062FD42E152F83E590E0B9D9F9
:1013200060E0F7018685B6DB82E1E5DFCD2DD12FC8
:101330000C0F1D2F111DC017D10719F08991DBDF8C
:10134000FACF61E0F7018685DF91CF911F910F9170
:10135000FF90EF90DF909ECB1F93CF93DF93EC0134
:10136000162F83E590E095D960E08E8593DB812F81
:101370008068C1DF80E0BFDF182F61E08E858ADBE7
:10138000812FDF91CF911F9108950F931F93CF93DA
:10139000DF93EC01062F142F83E590E07AD960E00B
:1013A0008E8578DB802FA7DF812FA5DF61E08E851A
:1013B000DF91CF911F910F916DCBCF92DF92EF9282
:1013C000FF920F931F93CF93DF93EC016B01142FC8
:1013D000790140E062E0D9DF44E06AE0CE01D5DF88
:1013E00040E864E1CE01D1DFA601612FCE018ADFA2
:1013F00043E062E0CE01C9DF08E813E16AE0CE0114
:10140000ABDF82FF18C040E062E0CE01BEDF64E4E3
:10141000CE01A2DFF701808362E4CE019DDFF701F8
:10142000818380E0DF91CF911F910F91FF90EF902A
:10143000DF90CF9008950150110901F783E0F2CFBA
:101440003F924F925F926F927F928F929F92AF9254
:10145000BF92CF92DF92EF92FF920F931F93CF93A1
:10146000DF931F921F92CDB7DEB73C01162F942E4B
:10147000290180E0A114B10411F0F5018081382C1C
:10148000329490EF3922380E40E062E0C3017DDFF4
:101490004FE768E0C30179DF40E864E1C30175DF2D
:1014A000A201602FC3012EDF432D6AE1C3016DDF6E
:1014B000412F62E0C30169DF1C3041F46AE1C301DE
:1014C0004BDF482F40686AE1C3015FDF00ED17E0A2
:1014D00068E0C30141DF982F992109F0A9C080FD80
:1014E00003C001501109A1F783E088C0E114F104A1
:1014F00009F462C0C114D10409F45EC064E1C301FF
:101500002BDF982EF6018081891508F48BC090821C
:10151000992091F183E590E0BCD860E0F3018685E5
:10152000B9DA9A9482E9E7DE882091F00FEF10E0B3
:1015300001C0000F8A94EAF782E9DDDE902F9095D2
:10154000F701208192238023982B90838824839411
:101550008701080D111D891438F482E9CCDEF801E9
:1015600081938F018394F7CF80E0C5DEF8018083FB
:1015700061E0F30186858EDA68E1C301EDDE8770F4
:10158000A114B10411F0F501808353FC4DC0E114A6
:10159000F10409F44BC0C114D10409F447C09F8978
:1015A000992309F443C0F6014081413039F4843075
:1015B00009F047C08FEF22C080E0E7CF423008F447
:1015C00040C081113EC042509E012F5F3F4FB70186
:1015D000C301F3DE811112C0F6019081E90EF11C06
:1015E000F70132972081998129132BC0F1E0EF1A7E
:1015F000F108F70120819A81291323C00F900F90E1
:10160000DF91CF911F910F91FF90EF90DF90CF90DE
:10161000BF90AF909F908F907F906F905F904F9012
:101620003F90089584E0EACF82E0E8CF80E0E6CF03
:101630006CE0C30191DE582E837109F457CF81E02D
:10164000DDCF87E0DBCF0F931F93CF93DF938C0128
:10165000D62FC42F81DEC0954C2F48236D2FC80193
:10166000DF91CF911F910F9190CE6F927F928F92C9
:10167000AF92BF92CF92DF92EF92FF920F93CF93F0
:10168000DF9300D01F921F92CDB7DEB73C0182E0FE
:101690008D8340E064E2C30178DE40E066E2C3018E
:1016A00074DE46E268E4C30170DE86E28B838D81DE
:1016B0008230B8F140E86CE1C301C5DF87E08C837C
:1016C0001F92812CCE0104965C0101966C01049757
:1016D0007C0101E09E012D5F3F4F40E36CE0C301C0
:1016E000AFDE982F0F90811119C08D818230C9F41F
:1016F0008C81811116C081E00F900F900F900F9098
:101700000F90DF91CF910F91FF90EF90DF90CF90EE
:10171000BF90AF908F907F906F90089581E092304E
:1017200059F380E0E9CF2F923F924F925F926F92F0
:101730007F928F929F92AF92BF92CF92DF92EF9261
:10174000FF920F931F93CF93DF93CDB7DEB72E9702
:101750000FB6F894DEBF0FBECDBF06E0413508F0EE
:1017600040C14E873B012C0140E86CE16CDF83E90E
:1017700089832E85222329F081E0F3019081953021
:1017800008F480E0992493941C869C85990F990F06
:10179000990F1E85191B17FD10E032E0882319F000
:1017A00098E89B8333E021E0912F977009F420E0C3
:1017B000912F959595959595290FD1F094E08111EC
:1017C00093E0291708F4922F2C85E22FF0E0319650
:1017D000E60DF71D232F4191A1E0B0E0AC0FBD1F36
:1017E000A20FB11D4C932F5F422F431B491798F353
:1017F0008111185F10320CF480C080E78A838B81DE
:101800009C8189279D8189279E8189278F839E01BD
:10181000285F3F4F47E0BE016F5F7F4FC201CDDDC4
:10182000082F8111DEC01A8693E09B871D87FE0179
:1018300037961F0109E08A84482D4295407F480D64
:101840006AE1C201A2DD1F92CE010A965C01FE018F
:101850003B966F0171019E012F5F3F4F40E36CE0AB
:10186000C201EEDD082F0F90823009F064C06CE1F8
:10187000C20172DD85FDB5C08F7109F480E2282FA9
:1018800030E0412F110F550B421753070CF09DC04C
:10189000182FE22FE595E595E595EF5F922F97706C
:1018A00081E009F480E0E80F81E090E08C0F9D1F5B
:1018B0008E0F911DFC01215031092770332781E0E3
:1018C00090E002C0880F991F2A95E2F79C01808161
:1018D000822B80838FCF85E98983FE85FF2331F0BA
:1018E00081E0F3019081983008F04FCF80E04DCF38
:1018F00087E98983F6E0FC87F9CF912F97709A8763
:10190000812F8595859585958E5F282F2295207F3F
:10191000290F2A8301E0911101C000E0080F222461
:101920002394312C2C0E3D1E280E311CF9E0F81B9F
:10193000FB871D8780CF811154C010E29D859032B6
:101940000CF45BCF8B81883809F041C083E093E0D1
:101950002C85E22FF0E03196E60DF71D980FA1E0FF
:10196000B0E0AC0FBD1FA80FB11D2C9121938F5F6C
:101970008913F5CF8B858C87833009F04CC08A851D
:10198000811149C09E012D5F3F4F41E0B101C2016D
:1019900014DD082F811125C09B81F10181819813ED
:1019A0003CC09C818281981338C0808182FF12C024
:1019B0009394F2E09F1609F48ECF23E0921609F477
:1019C00097CF81E0981609F4D2CE05E00AC082E0F4
:1019D00094E0BECFF3018387892D880F980E9394EE
:1019E0009082802F2E960FB6F894DEBF0FBECDBF2B
:1019F000DF91CF911F910F91FF90EF90DF90CF90EB
:101A0000BF90AF909F908F907F906F905F904F901E
:101A10003F902F90089501E0E4CF07E0E2CF2091BE
:101A2000570A260F3327331F21323105ECF420915A
:101A30001D0BFC0190E080E0243069F082E0089505
:101A4000A091570A2191AC01495C554FA40FB52FC5
:101A5000B11D2C930196861798F38091570A680F51
:101A60006093570A80E0089581E0089510921D0B5D
:101A700081E080931C0B1092F70A61E084E10AD8A0
:101A800061E085E107D8E9EBF0E080818E7F80831B
:101A900080818D7F808388E48093B80085E4809383
:101AA000BC000895CF93DF9391E09093360A88238A
:101AB000B1F0C091B800D091BA008091BC008A7B8F
:101AC0008093BC0060E084E10E944A0560E085E10B
:101AD0000E944A05CBDFD093BA00C093B800DF91D3
:101AE000CF910895CF92DF92EF92FF920F931F93C1
:101AF000CF93DF93D091460B81E0D13208F096C0AE
:101B0000C091450B1CD96B017C0180911D0B81118B
:101B100069C082E080931D0B81E080931C0B8FEFE6
:101B200080931B0B10921A0BD093190BA5E2BBE00C
:101B3000E9EFFAE080E0D81388C01092F80A8091AB
:101B4000F80ACC0FC82BC093F80A8091F70A8130AD
:101B500009F07FC01092F70AF2D86B017C018091E6
:101B6000F80A8093BB0080911F0B9091200BA091ED
:101B7000210BB091220B892B8A2B8B2B99F0DFD86C
:101B800000911F0B1091200B2091210B3091220B03
:101B90006C197D098E099F09061717072807390751
:101BA00008F440C08091BC0083FDD9CF85EC8093C0
:101BB000BC00C5D86B017C0180911D0B823009F4FB
:101BC0004AC080911B0B8F3F09F466C080911B0BAC
:101BD000803209F463C080911B0B803309F460C02C
:101BE00084E024C080911F0B9091200BA091210BC9
:101BF000B091220B892B8A2B8B2B09F486CF9FD88F
:101C000000911F0B1091200B2091210B3091220B82
:101C10006C197D098E099F090617170728073907D0
:101C200008F073CF80911E0B3DDF85E01092240BEE
:101C30001092460B1092230BDF91CF911F910F91C1
:101C4000FF90EF90DF90CF9008959D9191938F5FDB
:101C500072CF85EEACCF80911F0B9091200BA0919D
:101C6000210BB091220B892B8A2B8B2B09F4A4CF4B
:101C700066D800911F0B1091200B2091210B309101
:101C8000220B6C197D098E099F0906171707280773
:101C9000390708F091CFC6CF80E0C8CF82E0C6CF29
:101CA00083E0C4CFCF92DF92EF92FF920F931F9306
:101CB000CF93DF93D82FC62F613208F094C03FD85E
:101CC0006B017C0180911D0B811169C081E08093C3
:101CD0001D0B80931C0B9FEF90931B0B10921A0B04
:101CE0009C0F9093190B8093F80A8091F80ADD0FEE
:101CF000D82BD093F80A8091F70A813009F075C08B
:101D00001092F70A1CD86B017C018091F80A80932D
:101D1000BB0080911F0B9091200BA091210BB091E3
:101D2000220B892B8A2B8B2B99F009D800911F0B42
:101D30001091200B2091210B3091220B6C197D0901
:101D40008E099F09061717072807390708F448C0A6
:101D50008091BC0083FDD9CF85EC8093BC000E94AC
:101D60009F066B017C0180911D0B813009F43FC0FF
:101D700080911A0B8C1710F4C0911A0BE9EFFAE05E
:101D8000A7EDBAE080E08C1354C08C2FDF91CF9187
:101D90001F910F91FF90EF90DF90CF900895809169
:101DA0001F0B9091200BA091210BB091220B892B3E
:101DB0008A2B8B2B09F486CF0E949F0600911F0B64
:101DC0001091200B2091210B3091220B6C197D0971
:101DD0008E099F09061717072807390708F072CFE1
:101DE00080911E0B5FDEC0E0D0CF85EEB6CF809134
:101DF0001F0B9091200BA091210BB091220B892BEE
:101E00008A2B8B2B09F4AFCF0E949F0600911F0BEA
:101E10001091200B2091210B3091220B6C197D0920
:101E20008E099F09061717072807390708F09BCF67
:101E3000D7CF91919D938F5FA6CFE091D60A8091E5
:101E4000D50AE81730F4F0E0E952F54F808190E0D0
:101E500008958FEF9FEF08959091D60A8091D50A4B
:101E60002FEF3FEF981748F4E92FF0E0E952F54FD4
:101E7000208130E09F5F9093D60AC9010895809138
:101E8000D50A9091D60A891B990B0895CF92DF92BB
:101E9000EF92FF920F931F93CF93DF937C01CB01BF
:101EA0008A012091230B222389F0EB016B01C40EE0
:101EB000D51ECC15DD0561F06991D701ED91FC913E
:101EC0000190F081E02DC7011995F3CF642FA7DDB4
:101ED000C801DF91CF911F910F91FF90EF90DF909C
:101EE000CF900895CF93DF931F92CDB7DEB769836C
:101EF0002091230B2223F9F02091460B203258F039
:101F000021E030E0FC013383228390E080E00F90F9
:101F1000DF91CF9108958091240BE82FF0E0EB5DE5
:101F2000F44F998190838F5F8093240B8093460BAD
:101F300081E090E0ECCF61E0CE01019670DDF8CF5A
:101F400090E080E00895FC01908190539A3008F071
:101F500090E0818180532AE0929F800D11240895A2
:101F600061E080E20E944A0566E970E080E090E06E
:101F70000E947D0760E080E20C944A0587E30E949E
:101F8000880628E833E1DC010E94C0302FEF33E0FF
:101F900040E050E00E94E52DB901330F880B990B0A
:101FA0000E948B2C2FE93BEA4DE25EE30E941A2E41
:101FB0009B01AC0168E471EE8CED91E40E947F2EF0
:101FC00020E030E04AE754E40E94EA2C0E94E72E29
:101FD000CB010895CF92DF92FF920F931F93CF937F
:101FE000DF936C0181E08093230B88E68093450B9F
:101FF0001092240B1092460B60E08EE19DE072DFA0
:1020000071DD67E088E64EDE1092D60A8093D50A2D
:102010008EE19DE021DF8F77282F30E094E0359529
:1020200027959A95E1F7922F990F990FC22FC91B07
:10203000CC0FC80F8EE19DE00FDF9C0144E0359589
:1020400027954A95E1F72F703327922F990F990F13
:10205000D22FD91BDD0FD80F8EE19DE0FDDE9C0154
:1020600054E0359527955A95E1F72F703327922F35
:10207000990F990F122F191B110F180F8EE19DE068
:10208000EBDE8EE19DE0E8DE9C0164E0359527956E
:102090006A95E1F72F703327922F990F990F022F2E
:1020A000091B000F080F8EE19DE0D6DE9C0174E055
:1020B000359527957A95E1F72F703327922F990F51
:1020C000990FF22EF91AFF0CF80E8EE19DE0C4DE96
:1020D0009C01E4E035952795EA95E1F72F703327C9
:1020E000922F990F990F291B220F820FF6018083DF
:1020F000F18202831383D483C583C601DF91CF911C
:102100001F910F91FF90DF90CF90089581E0809311
:10211000230B88E68093450B1092240B1092460BFC
:102120006FE08EE19DE0DEDEDDDC61E088E6BADDB9
:102130001092D60A8093D50A8EE19DE08DCE089547
:10214000FF920F931F93CF93DF93EC0101E0009375
:10215000230B18E61093450B1092240B1092460B9C
:1021600060E08EE19DE0BEDE2D818AE0F82E822FB8
:102170006F2D0E948530682F660F680F660F620F03
:102180008EE19DE0AFDE2C81822F6F2D0E94853085
:10219000682F660F680F660F620F8EE19DE0A2DE6A
:1021A0002B81822F6F2D0E948530682F660F680F5C
:1021B000660F620F8EE19DE095DE60E08EE19DE0AE
:1021C00091DE2A81822F6F2D0E948530682F660F45
:1021D000680F660F620F8EE19DE084DE2981822FF9
:1021E0006F2D0E948530682F660F680F660F620F93
:1021F0008EE19DE077DE2881822F6F2D0E94853051
:10220000682F660F680F660F620F8EE19DE06ADE31
:1022100069DC7CDFC82F0093230B1093450B1092D1
:10222000240B1092460B6FE08EE19DE05BDE6C2F7D
:102230006F778EE19DE056DEDF91CF911F910F9178
:10224000FF9050CCFC0180819181009711F00C949B
:1022500062310895FB0101900020E9F73197AF0149
:10226000461B570B0C944C038F929F92AF92BF92D8
:10227000EF92FF920F931F93CF93DF93CDB7DEB70B
:10228000A1970FB6F894DEBF0FBECDBF7C01FA0157
:10229000CB0119A2223008F42AE08E010F5D1F4FF6
:1022A000822E912CB12CA12CBF01A50194010E947A
:1022B000C32DF901CA016A3004F5605DD8016E933F
:1022C0008D01232B242B252B79F790E080E01097AC
:1022D00019F0BD01C701BEDFA1960FB6F894DEBFAD
:1022E0000FBECDBFDF91CF911F910F91FF90EF9067
:1022F000BF90AF909F908F900895695CDFCF462F7D
:1023000050E070E060E02AE0AFCFCF92DF92EF9232
:10231000FF920F931F93CF93DF9377FF1CC06A0147
:102320007B01EC016DE20E945B048C014427552780
:10233000BA014C195D096E097F092AE0CE0194DFCC
:10234000800F911FDF91CF911F910F91FF90EF9020
:10235000DF90CF9008952AE0DF91CF911F910F91E8
:10236000FF90EF90DF90CF907FCFAB01770F660BA0
:10237000770BCBCF4F925F926F927F928F929F920B
:10238000AF92BF92CF92DF92EF92FF920F931F9383
:10239000CF936B017C01742EAC019B010E94682FCE
:1023A00065E972E0811126C046015701E894B7F84B
:1023B0002FEF3FEF4FE75FE7C501B4010E94682FA1
:1023C00081110CC02FEF3FEF4FE75FE7C501B4016C
:1023D0000E94852C69E972E0181664F02FEF3FEF38
:1023E0004FE75FE4C701B6010E94182F1816A4F446
:1023F0006DE972E087E49BE0CF911F910F91FF9010
:10240000EF90DF90CF90BF90AF909F908F907F9094
:102410006F905F904F901ECF2FEF3FEF4FE75FEC35
:10242000C701B6010E94852C87FDE2CF20E030E095
:10243000A901C701B6010E94852C10E000E087FFCA
:102440000AC06DE287E49BE00E945B048C01F7FA0E
:10245000F094F7F8F094C0E060E070E080E09FE373
:102460007C1641F020E030E040E251E40E947F2EF3
:10247000CF5FF6CFA70196010E941B2E2B013C01D6
:102480000E94EC2E4B015C012AE0BC01A40187E410
:102490009BE0EADE7C01E00EF11ECC23C9F1C50110
:1024A000B4010E94892C9B01AC01C301B2010E94BE
:1024B0001A2E4B015C016EE287E49BE00E945B04F4
:1024C000E80EF91EC15020F120E030E040E251E476
:1024D000C501B4010E94EA2C2B013C010E94EC2EA4
:1024E0004B01B12CA12C2AE0B501A40187E49BE0AB
:1024F000BBDEE80EF91EC501B4010E94892C9B01C8
:10250000AC01C301B2010E941A2E4B015C01DACF6B
:10251000C701CF911F910F91FF90EF90DF90CF9067
:10252000BF90AF909F908F907F906F905F904F90F3
:1025300008950F931F93CF93DF93EC018BDE8C01F3
:1025400061EA72E0CE0186DE800F911FDF91CF91AC
:102550001F910F91089564EA72E0811102C06CEA44
:1025600072E081E89CE0E5CF8823A1F065EB72E0A2
:1025700081E89CE0DEDF609107027091080282E052
:102580000E94B30561E083E00E944A0581E08093E8
:10259000270A08956CEB72E081E89CE0CADF60E0F6
:1025A00083E00E944A051092270A08958823A1F02B
:1025B00064EC72E081E89CE0BCDF60910302709102
:1025C00004028AE00E94B30561E088E00E944A05A7
:1025D00081E08093260A08956DEC72E081E89CE02A
:1025E000A8DF60E088E00E944A051092260A08955C
:1025F0006115710509F02ECE90E080E008951F93DB
:10260000CF93DF9300D01F92CDB7DEB781E89CE077
:102610000E94A40381E89CE00E94A40310E08A3396
:1026200079F0E1E0F0E0EC0FFD1FE10FF11D17FD87
:10263000FA9580831F5F81E89CE00E94A403EFCF9E
:10264000CE0101960E94182C182F81E89CE00E9470
:10265000A4038053990B8230910520F4682F812FB9
:102660000E944A0581E89CE00E94A4038A3011F090
:102670008D30C1F781E89CE00E94B8038A3021F4D4
:1026800081E89CE00E94A4030F900F900F900F90A0
:10269000DF91CF911F9108950F931F93CF93DF93F5
:1026A000EC0188819981009759F02A813B81261796
:1026B000370730F081E0DF91CF911F910F9108959E
:1026C0008B016F5F7F4F0E94EB31009759F0998328
:1026D00088831B830A832C813D81232B59F7FC01BE
:1026E0001082E8CF80E0E7CFCF92DF92EF92FF92A7
:1026F0000F931F93CF93DF93CDB7DEB72E970FB60F
:10270000F894DEBF0FBECDBF7C01CB01BA012AE039
:10271000AE014F5F5F4F6A010E943E2CF6010190AF
:102720000020E9F73197EC19FD09D1F0D701149693
:102730000D911C910E0F1F1FB801C701ADDF88233B
:1027400081F0F7012081318184819581B601820F6A
:10275000931F0E94D032D70115961C930E931497A5
:1027600081E02E960FB6F894DEBF0FBECDBFDF918D
:10277000CF911F910F91FF90EF90DF90CF90089530
:10278000EF92FF920F931F93CF93DF93EC017B01A6
:10279000198218821B821A821D821C82FB01019001
:1027A0000020E9F731978F01061B170BB80174DF82
:1027B00028813981811113C02115310519F0C90112
:1027C0000E946231198218821D821C821B821A8229
:1027D000DF91CF911F910F91FF90EF9008951D838E
:1027E0000C83B701C901DF91CF911F910F91FF9029
:1027F000EF900C94D0328F929F92AF92BF92CF9273
:10280000DF92EF92FF92CF93DF9300D000D0CDB74D
:10281000DEB780910E0A811108C063EA72E088E099
:102820009AE0AEDF81E080930E0A63EA72E0CE01A7
:102830000196A6DF809100028823B9F01092000271
:1028400084EE9BE00E94C603892B79F00E94E80782
:10285000AB01BC0188E09AE047DF80910C0A9091BF
:102860000D0A9093030A8093020A84EE9BE00E9473
:10287000C603892B09F46EC00E94E8074B015C0176
:10288000AAE0B0E0AC019B010E94012E6B017C012B
:10289000DC01CB01895E9340A109B109873D9342D8
:1028A000A940B10530F5B501A401CE0101961CDFA8
:1028B0002091000A3091010A8D819E8122303105DC
:1028C00044F09093030A8093020A1092010A109236
:1028D000000A2091020A3091030A28173907C1F033
:1028E0008091000A9091010A01969093010A8093C9
:1028F000000A2091040A3091050A4091060A50917D
:10290000070AAAE0B0E00E94012E6B017C010CC016
:102910001092010A1092000A8092040A9092050A0D
:10292000A092060AB092070ACE0101968BDCC7017D
:10293000B60126960FB6F894DEBF0FBECDBFDF916D
:10294000CF91FF90EF90DF90CF90BF90AF909F908E
:102950008F90089567ED72E081E89CE0EADDC12C7C
:10296000D12C7601E1CF47DF61347D408340910572
:102970002CF18091EC099091ED0901969093ED096D
:102980008093EC09FBDA4497F4F48091EA09909182
:10299000EB0901969093EB098093EA098091EC0989
:1029A0009091ED090597A4F481E02091EA09309116
:1029B000EB09253031056CF480E008951092ED09A3
:1029C0001092EC09DFCF1092EB091092EA09E6CFE2
:1029D00081E0089585ED8093BC0080911F0B90915C
:1029E000200BA091210BB091220B0796A11DB11DC8
:1029F00023E0B695A795979587952A95D1F72091CD
:102A0000BC0024FD03C010921D0B089540911F0BC4
:102A10005091200B6091210B7091220B452B462B7E
:102A2000472B69F30097A105B10541F025E32A95ED
:102A3000F1F700000197A109B109E1CF80911E0BC8
:102A400031C88F929F92AF92BF92CF92DF92EF9256
:102A5000FF921F93CF93DF9300D000D0CDB7DEB7A6
:102A6000182F6091FE097091FF096F5F7F4F70937F
:102A7000FF096093FE09072E000C880B990B0E943A
:102A80008B2C20E030E04AEF53E40E94852C882311
:102A900019F0112309F479C10E944008882349F0F4
:102AA0008091EA0D8B3028F08D3050F085518230C6
:102AB000C8F1812C912C20ECA22E2FE7B22E1EC043
:102AC0006091E50D70E090E080E00E948B2C2DEC91
:102AD0003CEC4CEC5DE30E94EA2C6B017C016091C4
:102AE000E40D70E090E080E00E948B2C9B01AC0133
:102AF000C701B6010E941B2E4B015C010E944008D9
:102B0000882309F475C08091EA0D8C3009F44FC117
:102B1000D8F48B3091F1C12CD12C80ECE82E8FE7CA
:102B2000F82E55C06091E40D7091E50D762767276A
:102B3000762790E080E00E94892C2DEC3CEC4CEC58
:102B40005DE30E94EA2CD8CF8551823020F71091A6
:102B5000E60D612F70E0762F662766277F778091DC
:102B6000E70D682B90E080E00E94892C2DEC3CEC76
:102B70004CEC5DE30E94EA2C36C16091E60D70E0FA
:102B800090E080E00E94892C6B017C011091E70DA0
:102B900017FF0AC0AC019B0160E070E080E89FEB8A
:102BA0000E941A2E6B017C011F70612F70E090E073
:102BB00080E00E948B2C2DEC3CEC4CEC5DE30E9401
:102BC000EA2CA70196010E941B2E6B017C01A50136
:102BD0009401C501B4010E94682F811109C0A701A9
:102BE0009601C701B6010E94682F882309F404C129
:102BF00068EE72E081E89CE09CDCFDDD6093F20908
:102C00007093F3098093F4099093F509B7D9092ECD
:102C1000000CAA0BBB0B8093EE099093EF09A093D5
:102C2000F009B093F10988E30E948806BC01990F6E
:102C3000880B990B0E948B2C28E834EF43EB5FEB59
:102C40000E941C2F6B017C016091FA097091FB09B5
:102C50008091FC099091FD0942E08CDB64E975E00C
:102C600087E49BE0C5DC6091F6097091F7098091DB
:102C7000F8099091F90942E07DDB64E975E087E4A9
:102C80009BE0B6DC609107027091080287E49BE04C
:102C90006CDB64E975E087E49BE0AADC60910B02E1
:102CA00070910C0287E49BE060DB64E975E087E4E7
:102CB0009BE09EDC4091F2095091F3096091F40988
:102CC0007091F50987E49BE020DB64E975E087E417
:102CD0009BE08EDC4091EE095091EF096091F00984
:102CE0007091F10987E49BE010DB64E975E087E40B
:102CF0009BE07EDC20E836E948E959E4C701B601EB
:102D00000E94EA2C0E94E72E87E49BE02EDB64E918
:102D100075E087E49BE06CDC8091270A61E070E05D
:102D2000811102C070E060E087E49BE01EDB64E993
:102D300075E087E49BE05CDC8091260A61E070E04E
:102D4000811102C070E060E087E49BE00EDB64E983
:102D500075E087E49BE04CDC1092FF091092FE09BD
:102D6000CE01019637D96C8187E49BE0C8DA6CE22A
:102D700087E49BE00E945B046D8187E49BE0BFDAFF
:102D800061EA72E087E49BE065DA26960FB6F89474
:102D9000DEBF0FBECDBFDF91CF911F91FF90EF90AF
:102DA000DF90CF90BF90AF909F908F90089510913B
:102DB000E60D612F70E090E080E00E94892C6B01AD
:102DC0007C016091E70D6F7070E090E080E00E9400
:102DD0008B2C2DEC3CEC4CEC5DE30E94EA2CA70123
:102DE00096010E941B2E6B017C0117FFF0CEF7FAB3
:102DF000F094F7F8F094EBCE8092FA099092FB09E8
:102E0000A092FC09B092FD09C092F609D092F70990
:102E1000E092F809F092F909F0CECF92DF92EF92AA
:102E2000FF920F931F93CF93DF93CDB7DEB7CE0101
:102E30000C96FC01C190D1907F019F01A60170E02A
:102E400060E090E080E00E94D73201960E94C63098
:102E50008C01A701B6010E940F33B80181E89CE004
:102E6000C7DB0115110519F0C8010E946231DF911D
:102E7000CF911F910F91FF90EF90DF90CF90089529
:102E8000CF93DF93CDB7DEB7CA55D1090FB6F8940B
:102E9000DEBF0FBECDBF84E5E3E1F2E0DE011196B7
:102EA00001900D928A95E1F7CE018B5A9F4F92D8EF
:102EB0006EE577E081E89CE09BDB66964FAD669718
:102EC00050E04053584F052E000C660B770B2AE05C
:102ED00081E89CE0C9D96FE281E89CE00E945B0434
:102EE00067966FAD679781E89CE009DA6FE281E849
:102EF0009CE00E945B0468966FAD689781E89CE057
:102F0000FED96EE577E081E89CE072DB67966FADF5
:102F1000679766969FAD6697492F50E068968FAD8C
:102F20006897282F30E0E6E6F1E081E0861730F47C
:102F30007491270F311D8F5F3196F8CF633020F0E9
:102F4000937011F42F5F3F4F6DE671E0469FC00113
:102F5000479F900D569F900D112405964D5F5F4F32
:102F60005695479556954795840F951F820F931F49
:102F700067E070E00E9491302CE0289FB001299F0B
:102F8000700D112481E090E08C0F9D1F680F791F58
:102F900081E89CE02DDB6EE577E081E89CE028DBB2
:102FA00069966FAD699781E89CE0A9D96AE381E8E9
:102FB0009CE00E945B046A966FAD6A9781E89CE092
:102FC0009ED96AE381E89CE00E945B046B966FAD3A
:102FD0006B9781E89CE093D960E281E89CE00E94D5
:102FE0005B0480910B0290910C028330910509F4EF
:102FF00062C00CF050C08130910509F459C06AE1FB
:1030000073E0029709F450C08091CE0A882329F01A
:1030100064E773E081E89CE0EBDA8091C20A8823E0
:1030200039F18091C40A1F928F938091C30A1F9235
:103030008F9388E893E09F938F93EFDE809109024E
:1030400090910A020F900F900F900F900F900F9099
:1030500066EA73E0009749F06CEB73E0813091050C
:1030600021F0029729F465ED73E081E89CE0C0DA75
:1030700063EA72E081E89CE05CDA1092AF0A109299
:10308000AE0AC65ADF4F0FB6F894DEBF0FBECDBFF3
:10309000DF91CF9108958530910599F07CF062E63B
:1030A00073E0069709F0B0CF81E89CE0A1DAACCFDD
:1030B00068E073E0F9CF6CE273E0F6CF6EE373E0A3
:1030C000F3CF60E573E0F0CFCF93DF93EC018CE1B9
:1030D0000E942205019709F0DEC08091300A90918C
:1030E000310AA091320AB091330A0196A11DB11D97
:1030F0008093300A9093310AA093320AB093330A36
:10310000AE010D2E000C660B770B84179507A607F2
:10311000B70731F50E94B00F8EEE93E09F938F9327
:103120007CDE0F900F908091CA0A9091CB0A892B78
:1031300091F080910B0290910C02019790930C02F8
:1031400080930B021092300A1092310A1092320AC8
:103150001092330A05C066E074E081E89CE0E9D98A
:103160008EE10E942205019709F0B0C080912C0ADF
:1031700090912D0AA0912E0AB0912F0A0196A11DBF
:10318000B11D80932C0A90932D0AA0932E0AB09320
:103190002F0AAE010D2E000C660B770B84179507D6
:1031A000A607B707A9F40E94B00F85E294E09F93A9
:1031B0008F9333DE0F900F908091CC0A9091CD0ABF
:1031C000892B09F06FC06DE374E081E89CE0B1D910
:1031D0008EE10E942205019709F07FC08CE10E94D8
:1031E0002205019709F079C010922C0A10922D0A3D
:1031F00010922E0A10922F0A1092300A1092310A61
:103200001092320A1092330A4091280A5091290AEA
:1032100060912A0A70912B0A4F5F5F4F6F4F7F4F6B
:103220004093280A5093290A60932A0A70932B0A24
:10323000CE01DD0FAA0BBB0B481759076A077B07A6
:1032400009F058C08CE594E09F938F93E6DD0F90D2
:103250000F9080910B0290910C02039709F44AC0E1
:103260000E94B00F8091C90A882309F446C01092C9
:10327000C90A64E774E081E89CE05BD980E00E94C1
:103280003E026FEF7FEF8FEF90E00E94E802DF9148
:10329000CF910C94C4068CE10E942205892B09F081
:1032A0005FCF50CF80910B0290910C0201969093CA
:1032B0000C0280930B0281E0C4DB10922C0A109266
:1032C0002D0A10922E0A10922F0A82CF8EE10E94B0
:1032D0002205892B09F07CCFF0CF8EE10E942205D8
:1032E000892BA9F41092280A1092290A10922A0A0E
:1032F00010922B0ADF91CF91089581E08093C90A43
:1033000062E874E081E89CE014D98FEFB8CF8CE1DB
:103310000E942205892B31F3EDCF3F924F925F92AD
:103320006F927F928F929F92AF92BF92CF92DF92D5
:10333000EF92FF920F931F93CF93DF93CDB7DEB73A
:1033400064970FB6F894DEBF0FBECDBF87E49BE055
:103350000E94C603892B19F081E08093CE0A87E48E
:103360009BE00E94B803019609F44FC387E49BE0F9
:103370000E94A4038C016AE070E080E090E00E946B
:103380007D07F801E156F109EA31F10508F027C09F
:103390008827E253F64E8F4F0C94B830E819EF1996
:1033A000271CEF19EF190C1BEF19001BEF19EF1970
:1033B000EF19581BFB19EF19EF19EF19EF192A1C18
:1033C000EF19351AEF19AD1AEF19EF19EF19551B4F
:1033D00081E08093CE0A1092D00A1092CF0A87E43F
:1033E0009BE00E94B803019609F40FC387E49BE0B9
:1033F0000E94A403F4CF87E49BE00E94A4038E36CE
:10340000C9F48FE894E09F938F9307DD0F900F909E
:103410008091CC0A9091CD0A6DE374E0892B09F17B
:1034200080910B0290910C02019690930C02809374
:103430000B02D5CF823699F68DEA94E09F938F9355
:10344000ECDC0F900F908091CA0A9091CB0A892BE7
:1034500031F080910B0290910C020197E6CF66E06B
:1034600074E081E89CE065D8BACFE3E2FAE083E05B
:10347000DF011D928A95E9F76AE070E080E090E054
:103480000E947D0787E49BE00E94B80310E000E003
:103490008237910579F48BEC94E09F938F93BDDC98
:1034A0001092C20A60E090E080E00E94A62D0F908A
:1034B0000F9095CF87E49BE00E94A4037801B1E0D0
:1034C000EB22FF24F701ED5DF54F80836AE070E0A9
:1034D00080E090E00E947D07EF2881F01092250A9D
:1034E00083E29AE00E94182CE091220A91E09E0F5C
:1034F0009093220AF0E0ED53F54F80830F5F1F4F4A
:1035000004301105B9F68091C40A1F928F938091FF
:10351000C30A1F928F938AEE94E09F938F937DDC72
:1035200061E090E080E00E94A62D6091C30A81E0F6
:1035300090E00E94A62D6091C40A82E090E00E9473
:10354000A62D1092220A81E08093C20A0F900F905C
:103550000F900F900F900F9042CF87E49BE00E9456
:10356000B8038337910509F03FC087E49BE00E94D0
:10357000A40365E070E080E090E00E947D0703E234
:103580001AE087E49BE00E94A403F80181938F0175
:1035900065E070E080E090E00E947D07FAE006328E
:1035A0001F0779F783E29AE00E94182C80930302A8
:1035B000909304029F938F938EE195E09F938F9356
:1035C0002CDC60910302709104028AE00E94B30532
:1035D000E3E2FAE083E0DF011D928A95E9F70F90BC
:1035E0000F900F900F90FBCE87E49BE00E94A40306
:1035F000C19721F481E00E94D612F1CE80E0FBCF8A
:1036000087E49BE00E94A403C19721F481E00E941B
:10361000AB12E5CE80E0FBCF87E49BE00E94B803CD
:1036200083379105B1F587E49BE00E94A40365E030
:1036300070E080E090E00E947D0703E21AE087E4FA
:103640009BE00E94A403F80181938F0165E070E084
:1036500080E090E00E947D07FAE006321F0779F7CC
:1036600083E29AE00E94182C80930702909308024C
:103670009F938F9382E395E09F938F93CEDB60912E
:10368000070270910802709306026093050282E0BF
:103690009DCF87E49BE00E94A403C19721F481E0C1
:1036A0000E94B4129CCE80E0FBCF6AE475E0D9CED4
:1036B00087E49BE00E94B8038536910509F059C064
:1036C0006CE575E081E89CE00E94991260E070E092
:1036D000CB010E94E8020E94C4061092C90A8091A0
:1036E000C90A882309F47BCE80910B0290910C02C9
:1036F000049709F474CE8EE19AE00E94182C082FEA
:10370000D92E8AE19AE00E94182C182FE92E86E122
:103710009AE00E94182CF82E809102028F938091DB
:1037200001028F93DF920F93EF921F939F93FF926B
:1037300085E795E09F938F9370DB809101029091D4
:1037400002020FB6F894DEBF0FBECDBF009711F096
:103750000E943E02612F70E090E080E0982F872F5A
:10376000762F66278F29602B0E94E8020E94C406EC
:1037700036CE87E49BE00E94B80380379105C9F5F7
:1037800069E675E081E89CE00E94991287E49BE07D
:103790000E94A40365E070E080E090E00E947D0755
:1037A00006E11AE032E2C32E3AE0D32EF12CE12CEE
:1037B00087E49BE00E94A403F801EE0DFF1D8083C7
:1037C00061E070E080E090E00E947D07BFEFEB1ABF
:1037D000FB0AE3E0EE16F10459F7D80113961C92A8
:1037E0000C5F1F4FC016D10609F781E08093C90A0C
:1037F00076CF87E49BE00E94B8038236910509F0FA
:103800006ECF87E49BE00E94A40365E070E080E057
:1038100090E00E947D0703E21AE087E49BE00E94AB
:10382000A403F80181938F0165E070E080E090E0EF
:103830000E947D07FAE006321F0779F783E29AE0DB
:103840000E94182C909302028093010248CF10929C
:10385000CE0AC5CD63E975E087E49BE00E94F812CB
:103860006091C30A87E49BE00E947F1164E975E0E0
:1038700087E49BE00E94F8126091C40A87E49BE011
:103880000E947F1161EA72E087E49BE00E942A11A6
:103890008E010F5F1F4F5E013FE0A30EB11C780148
:1038A00087E49BE00E94A403082E000C990BD7012B
:1038B0008D939D937D01AA15BB0591F766E975E08F
:1038C00081E89CE00E94F812C980DA80B60181E8A4
:1038D0009CE00E94B5116EEC75E081E89CE00E94CE
:1038E000F8123B807C81632D81E89CE00E94B51139
:1038F0006EEC75E081E89CE00E94F8124D807E81BC
:10390000642D81E89CE00E94B5116EE577E081E8C6
:103910009CE00E94F8125F807885652D81E89CE02C
:103920000E94B51169E677E081E89CE00E94F812F8
:1039300069847A85662D81E89CE00E94B51169E66C
:1039400077E081E89CE00E94F8127B847C85672DFB
:1039500081E89CE00E94B5116EE577E081E89CE08B
:103960000E94F81260ED75E081E89CE00E94F81278
:103970008D849E84B40181E89CE00E94B511980179
:10398000245F3F4FF12CE12CEAE0F0E0D8018D916B
:103990009D918D01BF010E94A530E60EF71EE80E35
:1039A000F91E2017310791F767EE75E081E89CE07A
:1039B0000E94F812B70181E89CE00E94B5118E14B4
:1039C0009F04C1F46EEF75E081E89CE00E949912BB
:1039D000C6018053984F803DB7E09B0708F0C601B1
:1039E0008F87388A498A5A8A6B8A7C8AC5010E94E5
:1039F000A010F5CC6BE176E081E89CE00E94991282
:103A000066EB78E087E49BE02ECD64960FB6F894E1
:103A1000DEBF0FBECDBFDF91CF911F910F91FF9001
:103A2000EF90DF90CF90BF90AF909F908F907F905E
:103A30006F905F904F903F900895CF93DF930E94D7
:103A4000BE0FEC018091C90A882379F06CE575E01E
:103A500081E89CE00E94991260E070E0CB010E9436
:103A6000E8020E94C4061092C90A8091E809909168
:103A7000E9099C012F5F3F4F3093E9092093E80942
:103A8000883E934079F4DF93CF938AE496E09F9346
:103A90008F93C3D91092E9091092E8090F900F9003
:103AA0000F900F9040E050E068E170E0C431D10524
:103AB000C4F06E9794F440E058E160E070E090E06C
:103AC00080E00E947F02C1E08AE00E943E020E94E4
:103AD000C4068C2FDF91CF91089548E150E060E05B
:103AE00070E090E080E00E947F02C0E0EDCF1F9286
:103AF0000F920FB60F9211240BB60F922F933F9394
:103B00004F935F936F937F938F939F93AF93BF93E5
:103B1000EF93FF9387E49BE00E94ED03FF91EF9109
:103B2000BF91AF919F918F917F916F915F914F91D5
:103B30003F912F910F900BBE0F900FBE0F901F90D3
:103B400018951F920F920FB60F9211240BB60F9279
:103B50002F933F934F935F936F937F938F939F9395
:103B6000AF93BF93EF93FF9387E49BE00E947C03A6
:103B7000FF91EF91BF91AF919F918F917F916F9145
:103B80005F914F913F912F910F900BBE0F900FBE01
:103B90000F901F9018951F920F920FB60F9211243D
:103BA0000BB60F922F933F934F935F936F937F9337
:103BB0008F939F93AF93BF93EF93FF9384EE9BE01C
:103BC0000E94ED03FF91EF91BF91AF919F918F9173
:103BD0007F916F915F914F913F912F910F900BBE0D
:103BE0000F900FBE0F901F9018951F920F920FB657
:103BF0000F9211240BB60F922F933F934F935F9325
:103C00006F937F938F939F93AF93BF93EF93FF93A4
:103C100084EE9BE00E947C03FF91EF91BF91AF91F6
:103C20009F918F917F916F915F914F913F912F91D4
:103C30000F900BBE0F900FBE0F901F9018951F9204
:103C40000F920FB60F9211240BB60F922F933F9342
:103C50004F935F936F937F938F939F93AF93BF9394
:103C6000EF93FF9381E89CE00E94ED03FF91EF91B9
:103C7000BF91AF919F918F917F916F915F914F9184
:103C80003F912F910F900BBE0F900FBE0F901F9082
:103C900018951F920F920FB60F9211240BB60F9228
:103CA0002F933F934F935F936F937F938F939F9344
:103CB000AF93BF93EF93FF9381E89CE00E947C0356
:103CC000FF91EF91BF91AF919F918F917F916F91F4
:103CD0005F914F913F912F910F900BBE0F900FBEB0
:103CE0000F901F9018951F920F920FB60F921124EC
:103CF0002F933F938F939F93AF93BF9380917B0AB2
:103D000090917C0AA0917D0AB0917E0A30917A0A46
:103D100023E0230F2D3758F50196A11DB11D2093E7
:103D20007A0A80937B0A90937C0AA0937D0AB093D1
:103D30007E0A80917F0A9091800AA091810AB091B9
:103D4000820A0196A11DB11D80937F0A9093800A7B
:103D5000A093810AB093820ABF91AF919F918F91F6
:103D60003F912F910F900FBE0F901F90189526E84E
:103D7000230F0296A11DB11DD2CF1F920F920FB635
:103D80000F9211240BB60F922F933F934F935F9393
:103D90006F937F938F939F93AF93BF93EF93FF9313
:103DA0008091B900887F803609F44DC008F040C08A
:103DB000883209F4A9C028F5803109F49DC0C8F4FF
:103DC000882309F4FBC0883009F496C0FF91EF9175
:103DD000BF91AF919F918F917F916F915F914F9123
:103DE0003F912F910F900BBE0F900FBE0F901F9021
:103DF0001895883109F488C0803241F780931B0BF5
:103E000014C0803409F49DC040F48033B9F3883382
:103E1000E9F680931B0B85ECB0C0803509F485C0B2
:103E2000883509F496C0883489F60E94EA14CECF0A
:103E3000883909F48CC038F5883729F050F4883671
:103E400011F0803719F683E080931D0B1092790AE8
:103E500057C0883809F47BC0803919F0803809F0E0
:103E6000B5CF8091790A803208F071C0E091790A6B
:103E700081E08E0F8093790A8091BB00F0E0E75AD1
:103E8000F54F80833DC0803B39F0E0F4803A09F47F
:103E900079C0883A09F09ACF84E080931D0B109284
:103EA000580A1092570AE091BA0AF091BB0A199584
:103EB0008091570A81110FC081E08093570A1092B8
:103EC000370A09C0803C09F4A6CF883C09F4A3CF87
:103ED000883B09F07BCFE091580A81E08E0F8093F8
:103EE000580AF0E0E95CF54F80818093BB00909127
:103EF000580A8091570A29C08091F80A8093BB0024
:103F000085EC8093BC0062CF90911A0B8091190BC5
:103F1000981758F5E0911A0B81E08E0F80931A0BD9
:103F2000F0E0E750F54F8081E9CFE0911A0B81E096
:103F30008E0F80931A0B8091BB00F0E0E750F54F95
:103F4000808390911A0B8091190B9817C8F285E81D
:103F5000D8CFE0911A0B81E08E0F80931A0B8091DD
:103F6000BB00F0E0E750F54F808380911C0B81117E
:103F70005CCF81E08093F70A84EA8093BC001092C2
:103F80001D0B24CF85EC8093BC0010921D0B8091FB
:103F9000790A803230F4E091790AF0E0E75AF54F7F
:103FA00010826091790A70E0E091BC0AF091BD0A3C
:103FB00089E59AE019951092790A08CF10921B0BA7
:103FC00034CF1F920F920FB60F9211240F900FBE95
:103FD0000F901F9018951F920F920FB60F921124F9
:103FE0000BB60F922F933F934F935F938F939F93B3
:103FF000AF93BF93EF93FF93EAE2FDE08685978549
:10400000892B81F18489882369F18081823021F4B0
:1040100082899389892B31F1248535852F5F3F4F24
:104020003587248740895189A581B68181859C91F6
:104030004217530768F1892B8C9324853585868533
:1040400097852817390770F015861486808182308D
:1040500049F48289938901978E3F2FEF920710F4DC
:10406000938B828B76968DE0E238F80739F6FF91D4
:10407000EF91BF91AF919F918F915F914F913F9140
:104080002F910F900BBE0F900FBE0F901F901895A1
:1040900080958923D1CF10924A0B1092490B88EE5C
:1040A00093E0A0E0B0E080934B0B90934C0BA09377
:1040B0004D0BB0934E0B25E732E03093480B209325
:1040C000470B45ED50E05093540B4093530B44ED98
:1040D00050E05093560B4093550B40ED50E05093F9
:1040E000580B4093570B41ED50E050935A0B4093BF
:1040F000590B42ED50E050935C0B40935B0B46ED47
:1041000050E050935E0B40935D0B1092600B109249
:10411000610B1092620B1092630B1092E70B1092DE
:10412000E60B8093E80B9093E90BA093EA0BB09316
:10413000EB0B3093E50B2093E40B4DEC50E05093E8
:10414000F10B4093F00B4CEC50E05093F30B409389
:10415000F20B48EC50E05093F50B4093F40B49EC14
:1041600050E05093F70B4093F60B4AEC50E050931D
:10417000F90B4093F80B4EEC50E05093FB0B40933F
:10418000FA0B1092FD0B1092FE0B1092FF0B109287
:10419000000C1092840C1092830C8093850C9093E9
:1041A000860CA093870CB093880C3093820C2093DC
:1041B000810C25EC30E030938E0C20938D0C24EC98
:1041C00030E03093900C20938F0C20EC30E0309353
:1041D000920C2093910C21EC30E03093940C2093BE
:1041E000930C22EC30E03093960C2093950C26EC47
:1041F00030E03093980C2093970C10929A0C109208
:104200009B0C10929C0C10929D0C1092210D109200
:10421000200D8093220D9093230DA093240DB09335
:10422000250D87E892E090931F0D80931E0DEAE222
:10423000FDE022E83DE081E01586148617861686AB
:10424000118A108A138A128A148A858B76962E1701
:104250003F0791F71092880D1092890D10928A0DE8
:1042600010928B0D10928C0D10928D0D10928E0D60
:1042700010928F0D1092900D1092910D1092920D40
:104280001092930D1092940D1092950D1092960D20
:104290001092970D96E39093E90D9BE09093EA0DB1
:1042A000E5EBF3E0E491E093EB0DEFE6F3E0E4916E
:1042B000E093EC0D40E85EE360E070E04093F10DC8
:1042C0005093F20D6093F30D7093F40D1092CF0D97
:1042D0001092D60D1092DD0D1092DE0D1092DF0DB2
:1042E0001092E00D8093DC0D8093D90D1092DA0DC1
:1042F00092E09093DB0D8093CE0D89E390E0909354
:10430000D30D8093D20D0E94C6309093D80D809328
:10431000D70D009709F436C029E3FC0111922A95C4
:10432000E9F783E190E09093D10D8093D00D8AE17D
:1043300090E09093D50D8093D40D8091CF0D88237C
:1043400041F061E08AE10E94770560E08AE10E9425
:104350004A05E3E5F3E0E491F0E0EE0FFF1FE15ED4
:10436000FC4F859194919093E20D8093E10DE9E9E2
:10437000F3E0E491E093E30D6CE676E088EC9DE0F9
:104380000C94C0131092D30D1092D20D1092D10D37
:104390001092D00DCCCFCF93DF93CDB7DEB7E3979C
:1043A0000FB6F894DEBF0FBECDBF789484B582609F
:1043B00084BD84B5816084BD85B5826085BD85B5C9
:1043C000816085BD80916E00816080936E00109247
:1043D00081008091810082608093810080918100C2
:1043E0008160809381008091800081608093800053
:1043F0008091B10084608093B1008091B0008160B1
:104400008093B000809191008260809391008091B0
:1044100091008160809391008091900081608093F1
:1044200090008091A10082608093A1008091A10002
:1044300081608093A1008091A00081608093A000A2
:10444000809121018260809321018091210181600E
:1044500080932101809120018160809320018091CF
:104460007A00846080937A0080917A0082608093E1
:104470007A0080917A00816080937A0080917A003E
:10448000806880937A001092C1001092C40D10923F
:10449000C50D1092C60D1092C70D1092840D10928A
:1044A000850D1092860D1092870D0E94AD076B014D
:1044B0007C014B015C0128EB820E2BE0921EA11CBB
:1044C000B11C0E94AD076C157D058E059F0528F077
:1044D00086169706A806B906A0F768EE73E080E096
:1044E00090E00E947D0781E89CE00E9417020E94F4
:1044F000AD076093840D7093850D8093860D909326
:10450000870D61E776E081E89CE00E94F8120E9446
:10451000AD076B017C014B015C013AE0830E911CFD
:10452000A11CB11C0E94AD076C157D058E059F0571
:1045300028F086169706A806B906A0F781E08093B2
:10454000980D0E94AD076093840D7093850D809344
:10455000860D9093870D62E876E081E89CE00E94EA
:10456000F81281E89CE00E94170284EE9BE00E9412
:10457000170287E49BE00E94170262E08091E90D38
:104580000E9477050E94AD07605D7740810991091F
:104590006093ED0D7093EE0D8093EF0D9093F00D01
:1045A00087E38093F60D1092D60A1092D50A1092E6
:1045B000240B1092460B0E94360D89E793E09093EE
:1045C000BB0A8093BA0A8AE793E09093BD0A80936E
:1045D000BC0A1FB7F8948091830A811127C0EEE6C8
:1045E000F3E08491E4EBF3E09491E82FF0E0EE0F38
:1045F000FF1FE355FD4FA591B491EC91E92321F400
:1046000061E085E30E944A0561E085E30E94770549
:104610008CB580618CBD8CB580648CBD61E084E319
:104620000E94770561E083E30E9477058091830A09
:104630008F5F8093830A1FBF4BE050E060ED72E014
:10464000CE0101961C010E94352CCE010A960E94D3
:10465000A30F8B8BE981E154E33130F50E2E000C72
:10466000FF0B8827E95CFC4D8F4F0C94B830702508
:1046700054235423842554236E2554235423542334
:104680004A235423542377258225802554235423F9
:1046900054237E258A81813609F41CC28B818E3693
:1046A00009F01AC286E08C8BCE0105960E94A30FFA
:1046B0008D8B48E050E067EC72E0C1010E94352C20
:1046C000C1010E94A30F8E8BCE0104960E94A30FFE
:1046D0008F8BCE0107960E94A30F888FCE01439641
:1046E0000E94A01060E08CE10E94770560E08EE1FE
:1046F0000E94770561E080E20E94770561E086E133
:104700000E94770560E088E30E94770560E08CE115
:104710000E944A0560E08EE10E944A0560E080E266
:104720000E944A058091B100887F81608093B1002A
:1047300080919100887F81608093910060E082E0A9
:104740000E94770560E08AE00E94770561E083E0DF
:104750000E94770561E088E00E94770560E084E0D0
:104760000E944A0560E089E00E944A0580E80E94B4
:104770003E028091D40D9091D50D97FD08C061E067
:104780000E94770560E08091D40D0E944A0581E087
:104790008093CF0D0E94C40687E0D1011D928A95B7
:1047A000E9F7710110E000E0C8010E949E2DF701B9
:1047B00081937F010F5F1F4F07301105A9F7898192
:1047C000813041F48093C20A8A818093C30A8B812D
:1047D0008093C40A69E876E081E89CE00E9499121F
:1047E000AC81AA2309F492C1B0E020E432E44FE0A6
:1047F00050E00E94012E0091840A1091850A2091B8
:10480000860A3091870AAB01BC01400F511F621F1D
:10481000731FED8120E137E2E29FC001E39F900D1D
:104820001124092E000CAA0BBB0B480F591F6A1F3D
:104830007B1F8E81F4E68F9FC0011124092E000C8E
:10484000AA0BBB0B840F951FA61FB71F2F81AC01AE
:10485000BD01420F511D611D711D4093840A50938B
:10486000850A6093860A7093870A88EC9DE00E940F
:1048700074138091870A8F938091860A8F93809119
:10488000850A8F938091840A8F938EEF96E09F9391
:104890008F930E940D170F900F900F900F900F9015
:1048A0000F906CE377E081E89CE00E94991280E031
:1048B0000E94D61280E00E94B4129E01275D3F4FF5
:1048C0003FA72EA70E94AD07672B682B692B09F421
:1048D00024C10E94AD070091D10A1091D20A209103
:1048E000D30A3091D40A601771078207930708F43E
:1048F000F0C30091D10A1091D20A2091D30A3091CD
:10490000D40A6B017C01C01AD10AE20AF30A9701AA
:1049100086010A3F11052105310508F406C160939F
:10492000D10A7093D20A8093D30A9093D40A84EF69
:1049300091E0A0E0B0E08093900D9093910DA09352
:10494000920DB093930D1092940D1092950D1092BC
:10495000960D1092970D8091880D9091890DA091E0
:104960008A0DB0918B0D80938C0D90938D0DA0933B
:104970008E0DB0938F0D0E94AD076093880D7093DC
:10498000890D80938A0D90938B0D81E89CE00E94A5
:10499000B803843611F40E94FF120E94AD076093A1
:1049A000840D7093850D8093860D9093870D0E94E2
:1049B000AD076B017C0160E677E081E89CE00E9436
:1049C000F81261E081E89CE00E947F1167E677E0E1
:1049D00081E89CE00E94F8122AE0B701A60181E874
:1049E0009CE00E94341169E677E081E89CE00E9437
:1049F000F8128091880D9091890DA0918A0DB09147
:104A00008B0DB701A601481B590B6A0B7B0B2AE0E3
:104A100081E89CE00E94341169E677E081E89CE03F
:104A20000E94F8124091880D5091890D60918A0D75
:104A300070918B0D80918C0D90918D0DA0918E0DAC
:104A4000B0918F0D481B590B6A0B7B0B2AE081E854
:104A50009CE00E9434116BE677E081E89CE00E94C4
:104A6000F8120E94AD07AB01BC012AE081E89CE08E
:104A70000E9434116DE677E081E89CE00E94991273
:104A80000E94AD074B015C017C016B0122E0C20E6C
:104A9000D11CE11CF11C0E94AD07681579058A053F
:104AA0009B0528F0C616D706E806F906A0F781E8A8
:104AB0009CE00E94B803843611F40E94FF120E9409
:104AC000AD076093880D7093890D80938A0D909344
:104AD0008B0D2BC081E0E7CD87E0E5CD82E0E3CD13
:104AE0008B81823711F484E0DECD88E0DCCD8B81D0
:104AF000823711F483E0D7CD85E0D5CD89E0D3CDE1
:104B00008AE0D1CD8BE0CFCD8CE0CDCD67E177E0F1
:104B100081E89CE00E949912C4CE0E94AD076230E9
:104B200071058105910508F0D4CE0E948D198CE2A3
:104B300091E00E94641880E00E9421158091AE0AE5
:104B40009091AF0A9C012F5F3F4F3093AF0A2093A3
:104B5000AE0A843F914011F40E9440178091AC0A44
:104B60009091AD0A9C012F5F3F4F803D974009F423
:104B7000B9C23093AD0A2093AC0A80910B02909198
:104B80000C028230910509F016C481E090E0909308
:104B9000CD0A8093CC0A1092CB0A1092CA0A809157
:104BA000C90A81110AC00E943E026FEF7FEF8FEFAA
:104BB00090E00E94E8020E94C40610920A0210923D
:104BC000090280910B0290910C02049709F0E6C053
:104BD000C1010E94EA0F8C814CE32D8130E0849F5B
:104BE000200D311D11245091C30A8091C40A90E018
:104BF000549F800D911D1124821793070CF037C428
:104C0000821B930B80569A4F89970CF433C481E032
:104C100090E090930A028093090281E090E09093E3
:104C2000CD0A8093CC0A8091B20A81110BC0809189
:104C30000702909108029093B10A8093B00A81E034
:104C40008093B20A81E00E9421158091AE0A909172
:104C5000AF0A01969093AF0A8093AE0A0E94401764
:104C600060E070E0CB010E94E8020E94C40610924E
:104C700008021092070281E00E94B41210E000E0E6
:104C80000E94AD0768AB79AB8AAB9BAB81E008357E
:104C9000E2E01E0729F00038F5E21F0719F480E072
:104CA0000E94D612C8016AE070E00E949130F62E90
:104CB000E72E892B09F027C47F936F9334E7C32E27
:104CC00037E0D32EDF92CF920E940D170F900F90F6
:104CD0000F900F9080910B0290910C02049709F0B5
:104CE000CCC381E00E942115083532E0130708F09B
:104CF000C9C32091050230910602032E000C440B1B
:104D0000550B2852310941095109AF2DBE2D79D7D4
:104D10002CE330E040E050E058D7DA01C901889632
:104D2000A11DB11D80930702909308029F938F935A
:104D300081EB97E09F938F930E940D17609107027C
:104D40007091080282E00E94B3050F900F900F90BF
:104D50000F900E948D198AE090E00E946418809163
:104D60000B0290910C028330910509F0F8C380E0AA
:104D70000E94D61280E00E94B4128091B00A9091F5
:104D8000B10A909308028093070280910B029091E0
:104D90000C02019790930C0280930B0280910B02FE
:104DA00090910C02059709F06BC11091C20A112372
:104DB00009F45CC11092D60A1092D50A1092240B05
:104DC0001092460B0E94360D89E793E09093BB0A40
:104DD0008093BA0A8AE793E09093BD0A8093BC0A55
:104DE00081E08093230B88E68093450B0E94720D2F
:104DF000882339F065E678E081E89CE00E9499120A
:104E000010E00E94861090E0880F892F881F990B70
:104E1000892B31F061E978E081E89CE00E949912E9
:104E2000112309F423C1C1010E94EA0F9091C30A22
:104E30008CE3E090C40AF12C989FE00CF11C112443
:104E40009C810D8110E0989F000D111D112480910F
:104E5000090290910A02029729F5E016F10611F570
:104E60008E8181111FC06FEF7FEF8FEF90E00E9466
:104E7000E8028FEF0E943E020E94C40681E00E9479
:104E8000B4128FEF90E090930802809307026FEFC7
:104E900070E082E00E94B30586E090E090930C02FF
:104EA00080930B028091C00A9091C10A9C012F5FF0
:104EB0003F4F3093C10A2093C00A803D9740D1F400
:104EC0008091090290910A020297A1F4FF92EF9259
:104ED0001F930F9388EB98E09F938F930E940D1779
:104EE0001092C10A1092C00A0F900F900F900F906D
:104EF0000F900F904FE0E416F1040CF0AAC35FE6A8
:104F0000E51A5AEFF50A8091BE0A9091BF0A9C01FA
:104F10002F5F3F4F3093BF0A2093BE0A803D9740DA
:104F2000D1F48091090290910A020197A1F4FF92B5
:104F3000EF921F930F9387EF98E09F938F930E94B8
:104F40000D171092BF0A1092BE0A0F900F900F908B
:104F50000F900F900F908091090290910A02019793
:104F600009F084C00E151F0509F080C08E818111E3
:104F70007DC086E090E090930C0280930B0281E06C
:104F80000E9421156FEF7FEF8FEF90E00E94E80203
:104F900080E00E943E020E94C40681E00E94B4129A
:104FA00010E000E09AE0892E912C0E94AD072B01C1
:104FB0003C01C801B4010E94A5307B015C01892B32
:104FC000A1F581E00E942115FF92EF92E6E3F9E05E
:104FD000FF93EF930E940D172FEF30E0D7010E944F
:104FE000C0300F900F900F900F9024E833E040E016
:104FF00050E0EBD5F22EE32E6FEF7FEF8FEF90E0D6
:105000000E94E8028F2D0E943E020E94C406EF9289
:10501000FF928CE6E82E89E0F82EFF92EF920E9434
:105020000D170F900F900F900F900E948D198AE02E
:1050300090E00E94641880910B0290910C020797F7
:105040000CF40BC382E090E090930C0280930B026F
:1050500080E00E94B4126FEF7FEF8FEF90E00E942C
:10506000E80280E00E943E020E94C40681E090E0D7
:105070009093CD0A8093CC0A1092CB0A1092CA0A60
:1050800080910B0290910C028630910509F03AC391
:1050900081E090E09093CD0A8093CC0A1092CB0AE5
:1050A0001092CA0A8091CF0A9091D00A019688384E
:1050B00023E1920709F433C39093D00A8093CF0A77
:1050C00061E070E080E090E00E947D070E9495041E
:1050D000F9CB6093D10A7093D20A8093D30A90934C
:1050E000D40A07CC1092AD0A1092AC0A8BE692E07B
:1050F0009C8B8B8B85E389A385E08AA361E085E3A4
:105100000E94770561E089A10E944A058AA18F3F2C
:1051100009F4C3C060E00E9477058AA10E942205BD
:10512000892B09F0BAC061E08AA10E94770560E08E
:105130008AA10E944A0583E090E00197F1F761E0BF
:105140008AA10E944A0562E370E080E090E00E943C
:105150007D0740E064E2CE0143960E94C50940E02D
:1051600066E2CE0143960E94C50946E268E4CE019C
:1051700043960E94C50940E864E5CE0143960E942B
:10518000C50949EA66E5CE0143960E94C50943E098
:1051900068E5CE0143960E94C50948EE6AE5CE0156
:1051A00043960E94C50940E46AE2CE0143960E94FC
:1051B000C5094DE362E2CE0143960E94C50968E24B
:1051C000CE0143960E94AC09982F9370933039F02A
:1051D000482F436068E2CE0143960E94C5098FEFD5
:1051E0008BA38CA38DA38EA38FA388A7CE014396F8
:1051F0000E94350B882309F4C0CCCE0143960E944F
:105200003B09882309F4B9CC82E18DA780E6898324
:1052100084E08A83DE019396FE0133969E2E1F2F33
:105220008D9181938EA59FA58A179B07C9F7ED895C
:10523000E150FF0BA3E1B0E0AC0FBD1FEA0FFB1F75
:10524000DE011996CE010D9621912D938A179B07A9
:10525000D9F71F92812CB12CA12CD12CC12CF12C6F
:10526000E12C0CE0910140E16EE0CE0143960E94FA
:10527000200A082F0F90882339F18DEE92E00E94CA
:105280005C04802F0E944B090E945C0461EA72E07A
:1052900081E89CE00E942A1170CC4FE062E0CE01D0
:1052A00043960E94C50913E062E370E080E090E05D
:1052B0000E947D0762E0CE0143960E94AC0984FF04
:1052C00048CF115089F745CF8DA5823150F180E349
:1052D000898384E08A83292D312F42E0B101CE01F8
:1052E00043960E94DD09182F811115C081E08F932C
:1052F000812CB12CA12CFE01BD966F01710104E03F
:10530000910140E36CE0CE0143960E94200A182FE1
:105310000F90882341F08CED92E00E945C04812F75
:10532000B1CF14E0F8CFF101AE014F5E5F4F90E0D6
:1053300080E02191203229F0DC01A857B54F2C9351
:1053400001964E175F07A9F768E87AE081E89CE0CC
:105350000E94F812E8E8FAE084E2DF011D928A95E3
:10536000E9F780E589A71AA69E01255D3F4F42E037
:10537000BE01675D7F4FCE0143960E94DD0981111A
:1053800013C01F92812CB12CA12CD12CC12CF12C3B
:10539000E12C04E09E01275D3F4F40E36CE0CE012D
:1053A00043960E94200A0F9048E060E1CE014396A8
:1053B0000E94230BE2CB039709F003CC1092CD0A95
:1053C0001092CC0A81E090E09093CB0A8093CA0AB5
:1053D0000E941D1D8823B9F08091C50A9091C60ACC
:1053E000A091C70AB091C80A892B8A2B8B2B59F43C
:1053F0000E94AD076093C50A7093C60A8093C70ADE
:105400009093C80ADECB0E941D1D882369F0C090CE
:10541000C50AD090C60AE090C70AF090C80AC11425
:10542000D104E104F10469F40E941D1D8111C9CB6E
:105430001092C50A1092C60A1092C70A1092C80AA2
:10544000C0CB0E94AD076C197D098E099F09683891
:1054500073418105910508F4B4CB80910B029091C2
:105460000C02019690930C0280930B02AACB821B34
:10547000930BCACB82E090E0CCCB083542E0140716
:1054800008F437CC003835E2130708F44FC1C09058
:105490000502D09006020D2C000CEE08FF08C80192
:1054A0006AE070E03ED69B0150E040E0205C334073
:1054B0004109510968E270E080E090E06C197D09D3
:1054C0008E099F0951D32CE231E040E050E07DD3BA
:1054D000C20ED31EE41EF51EC0920702D09208022F
:1054E000DF92CF9245EC59E05F934F930E940D17E6
:1054F000609107027091080282E00E94B3050F904C
:105500000F900F900F90073331E3130709F021CC70
:1055100080E00E94B4121DCCFDE28F16F1E09F06E0
:10552000A104B104A9F0750164010E94AD076419DA
:10553000750986099709683E73408105910508F051
:1055400022C161E070E080E090E00E947D07EDCF35
:1055500081E090E090930C0280930B0249C1059783
:1055600009F051C080E00E94D61280E00E94B4127F
:1055700068E478E081E89CE00E94F812F12CE12CCC
:1055800061E070E080E090E00E947D0748EEE41664
:1055900043E0F406B9F463E678E081E89CE00E9419
:1055A000F81288E090E090930C0280930B0281E067
:1055B0000E942115A5E0B0E0B0930C02A0930B026D
:1055C000F12CE12C0E948D198CE291E00E9464186C
:1055D00080910B0290910C0206977CF184E090E0A0
:1055E00090930C0280930B0263EA72E081E89CE0E6
:1055F0000E949912C8018855924089329342C8F09E
:1056000081E00E94B4120E94AD07C8A8D9A8EAA8F8
:10561000FBA86C197D098E099F0964367105810507
:10562000910578F461E070E080E090E00E947D07F1
:10563000EACF81E00E94D612E6CFEFEFEE1AFE0A23
:105640009FCF0F5F1F4F083321E3120709F018CBDC
:10565000D6C08FE0E81AF10856CCA114B10451F578
:105660000115110539F1C801B4016FD527ED30E0FE
:10567000DB0186D524E833E040E050E0A6D26901A2
:105680007A0188E2C80ED11CE11CF11CC09207020D
:10569000D0920802B60182E00E94B305DF92CF9259
:1056A000AAE8B9E0BF93AF930E940D170F900F9037
:1056B0000F900F900E94AD0764197509860997092C
:1056C000643671058105910538F461E070E080E091
:1056D00090E00E947D07EECFAB2831F463EA72E0E0
:1056E00081E89CE00E9499120F5F1F4F0932F3E29C
:1056F0001F0709F05ACC86E090E090930C0280934B
:105700000B02B4CC07970CF4CDCC82E090E09093E0
:105710000C0280930B0280E00E94B412C3CC109262
:10572000D00A1092CF0A1092CE0ACACC6AEA79E067
:1057300081E89CE00E9499120E94B314882309F426
:1057400008CB64ED77E081E89CE00E94991280E04C
:105750000E94B41280E00E94D61289E090E09093FB
:105760000C0280930B0240E050E068E170E090E0B2
:1057700080E00E947F028AE00E943E020E94C406EE
:10578000C12CD12C76010E94AD072B013C014601B2
:1057900057019FEF891A990AA90AB90AFF92EF9255
:1057A000DF92CF92AEE1B8E0BF93AF930E940D17A6
:1057B00081E00E9421150E94B3140F900F900F906A
:1057C0000F900F900F908111A7CE81E00E94B4122C
:1057D00081E00E94D61284E090E090930C028093C6
:1057E0000B0260E070E0CB010E94E8020E94C40658
:1057F00080910B0290910C02019709F0AACA809146
:105800000B0290910C020196C5CA88EC9DE00E94A3
:1058100022118091D70D9091D80D54D58091D40D3F
:105820009091D50D97FD03C060E00C947705089525
:10583000FC0188279927E89421912032E9F3293047
:1058400010F02E30C8F32B3239F02D3231F4689439
:1058500003C022D0820F911D219120532A30C8F31A
:105860001EF4909581959F4F0895FB01DC0102C0C5
:1058700005900D9241505040D8F70895BB272A302B
:1058800051F4992342F4BDE290958095709561950D
:105890007F4F8F4F9F4F09C07AE0979F902D879F32
:1058A000802D910D11240895BB27FA01A62F6217B0
:1058B000710581059105330B30FB66F0AA27660F51
:1058C000771F881F991FAA1FA21710F0A21B6395AC
:1058D0003850A9F7A05DAA3308F0A95DA19336F767
:1058E000B111B1931082CA0100C0DC01FC01672F25
:1058F00071917723E1F7329704C07C916D937083A7
:105900006291AE17BF07C8F3089540D008F481E054
:105910000895E89409C097FB3EF4909580957095A2
:1059200061957F4F8F4F9F4F9923A9F0F92F96E9EB
:10593000BB279395F695879577956795B795F11160
:10594000F8CFFAF4BB0F11F460FF1BC06F5F7F4FFD
:105950008F4F9F4F16C0882311F096E911C077230F
:1059600021F09EE8872F762F05C0662371F096E818
:10597000862F70E060E02AF09A95660F771F881FE7
:10598000DAF7880F9695879597F90895990F00088B
:10599000550FAA0BE0E8FEEF16161706E807F90701
:1059A000C0F012161306E407F50798F0621B730B9C
:1059B000840B950B39F40A2661F0232B242B252B1D
:1059C00021F408950A2609F4A140A6958FEF811DC0
:1059D000811D08950BD078C069D028F06ED018F0E2
:1059E000952309F05AC05FC01124A2C07ED0A0F355
:1059F000959FD1F3950F50E0551F629FF001729F64
:105A0000BB27F00DB11D639FAA27F00DB11DAA1F82
:105A1000649F6627B00DA11D661F829F2227B00DCF
:105A2000A11D621F739FB00DA11D621F839FA00D5A
:105A3000611D221F749F3327A00D611D231F849FAA
:105A4000600D211D822F762F6A2F11249F57504001
:105A50008AF0E1F088234AF0EE0FFF1FBB1F661F9C
:105A6000771F881F91505040A9F79E3F510570F055
:105A700014C05EC05F3FECF3983EDCF386957795EB
:105A80006795B795F795E7959F5FC1F7FE2B880F50
:105A9000911D9695879597F9089597F99F6780E8E6
:105AA00070E060E008959FEF80EC089500240A9470
:105AB0001616170618060906089500240A941216E9
:105AC0001306140605060895092E0394000C11F41C
:105AD000882352F0BB0F40F4BF2B11F460FF04C0C9
