:10000000E4C1000013C2000011C200000FC20000D2
:100010000DC200000BC2000009C2000007C20000B0
:1000200005C200000C94931F0C94931F0C94931F13
:10003000FDC100000C949D1FF9C10000F7C1000034
:10004000F5C10000F3C10000F1C10000EFC10000E4
:10005000EDC10000EBC10000E9C100000C94251EB9
:10006000E5C100000C94FB1D0C94D11DDFC1000004
:10007000DDC10000DBC10000D9C10000D7C1000014
:10008000D5C10000D3C10000D1C10000CFC1000024
:100090000C94A71D0C947D1DC9C100000C946F1E0B
:1000A000C5C10000C3C10000C1C10000BFC1000044
:1000B000BDC10000BBC10000B9C10000B7C1000054
:1000C000B5C10000B3C10000B1C100000C94531DC4
:1000D0000C94291DABC10000A9C10000A7C10000FC
:1000E000A5C1000007634236B79BD8A71A396856E6
:1000F00018AEBAAB558C1D3CB7CC5763BD6DEDFD4A
:10010000753EF6177231BF000000803F0800000006
:10011000BE922449123EABAAAA2ABECDCCCC4C3EFC
:1001200000000080BEABAAAAAA3E00000000BF00EB
:100130000000803F0000000000084178D3BB4387E7
:10014000D1133D190E3CC3BD4282AD2B3E68EC82FB
:1001500076BED98FE1A93E4C80EFFFBE01C4FF7F80
:100160003F00000000001F1C1F1E1F1E1F1F1E1F20
:100170001E556E6B6E6F776E206572726F720041E6
:10018000204D4946415245205049434320726573F2
:10019000706F6E6465642077697468204E414B2EE1
:1001A00000546865204352435F4120646F657320AB
:1001B0006E6F74206D617463682E00496E76616C99
:1001C000696420617267756D656E742E00496E7486
:1001D00065726E616C206572726F7220696E207438
:1001E000686520636F64652E2053686F756C6420AA
:1001F0006E6F742068617070656E2E0041206275AC
:1002000066666572206973206E6F7420626967206C
:10021000656E6F7567682E0054696D656F75742023
:10022000696E20636F6D6D756E69636174696F6E61
:100230002E00436F6C6C6973696F6E206465746522
:10024000637465642E004572726F7220696E20635C
:100250006F6D6D756E69636174696F6E2E00537595
:1002600063636573732E0000000A0B02090C0D0E08
:100270000807030401000000000000000000000067
:10028000000000000000000000000000000000006E
:10029000000000121110000000000000000000002B
:1002A000000000000000000000000000000000212D
:1002B00000240027002A002D003000330001010037
:1002C00000040107010A0131363A33393A35380062
:1002D0004F6374203239203230323000526561640D
:1002E000696E67206661696C65643A2000417574C7
:1002F00068656E7469636174696F6E206661696CAC
:1003000065643A2000000020002300260029002C0C
:10031000002F003200000100000301060109010066
:10032000002200250028002B002E0031003400029E
:10033000010000050108010B010505050507050879
:10034000080808020202020A0A0808040404040158
:10035000010101010101010303030303030303047A
:100360000707070C0C0C0C0C0C0C0C02020202060A
:10037000060606060606060B0B0B0B0B0B0B0B01FA
:1003800002102020080810204010204080020102A6
:10039000010804020101020408102040808040206E
:1003A00010080402018004020180402010080402A9
:1003B0000108040201010204081020408001020427
:1003C000081020408000FD1F982A11241FBECFEF87
:1003D000D1E2DEBFCDBF00E00CBF19E0A0E0B2E08B
:1003E000EAEEF8E600E00BBF02C007900D92A63DD2
:1003F000B107D9F72DE0A6EDB9E001C01D92A53EE9
:10040000B207E1F711E0C4EED1E000E006C02197A9
:100410000109802FFE010E944B2FC33ED10780E0CF
:100420000807A9F70E947D210C946434E9CDFC01F2
:10043000A089B18982E08C93A485B5851C92A6859C
:10044000B7858FEC8C93108EA489B58986E08C9348
:10045000A289B3898C9180618C93A289B3898C9194
:1004600088608C93A289B3898C9180688C93028870
:10047000F389E02D80818F7D808308951F93CF9332
:10048000DF9311E0180F2091C00D1217A1F1C09158
:10049000C10DD091C20D215070E060E061F08F3F3E
:1004A000F1F430E050E040E06FEF7FEF80E090E06B
:1004B0000E94782CB901FE014091BC0D5091BD0DF8
:1004C000CF018C1B9D0B8417950798F44081469FA4
:1004D000C001479F900D112490833196EDCF812F5D
:1004E00090E0982F88270197622F70E00E94242FB8
:1004F000E2CF1093C00DDF91CF911F9108954F92DD
:100500005F926F927F928F929F92AF92BF92FF9273
:100510002091BA0D3091BB0D8217930708F043C0AC
:100520002B0166247724852E962EA72EBB24B82D6A
:10053000A42F2091C00DF42C222391F0E22FF0E0A3
:10054000E49DD001E59DB00DF49DB00D1124FB2E6E
:10055000289D40011124B92D249F90011124A32F1F
:10056000E091C60D2091C10D3091C20D5091C30D87
:10057000E51323C0FC01EE0FFF1F8E0F9F1F820F9C
:10058000931FE091C30DE80FF92FF11DF082E09168
:10059000C40DE80FF92FF11DB0832091C50D820F16
:1005A000911DFC01A083FF90BF90AF909F908F9012
:1005B0007F906F905F904F900895880F991F880FDC
:1005C000991F820F931FE80FF92FF11D1082D9CFC9
:1005D000CF92DF92EF92FF920F931F93CF93DF930F
:1005E0000091BA0D1091BB0D0115110589F0033171
:1005F000110510F003E110E06B017C01D0E0C0E0D8
:10060000B701A601CE017BDF21960C171D07C1F7AC
:10061000DF91CF911F910F91FF90EF90DF90CF90DE
:100620000895CF92DF92EF92FF92CF93DF93B09134
:10063000D50DA0E08111AB2F8091D60D90E0880FF1
:10064000991FAC014B5F5C4FC090DB0DD090DC0D6F
:10065000E090DD0DF090DE0D30E020E0FA01C59174
:10066000D491E881B90190E080E0EB23EA130AC05D
:100670002F5F3F4F6C157D058E059F0578F36FEF5B
:100680007FEFCB01DF91CF91FF90EF90DF90CF9084
:1006900008958CBD9DBD0895AF92BF92CF92DF9219
:1006A000EF92FF920F931F93CF93DF936C017B0127
:1006B0008B01040F151FEB015E01AE18BF08C017B8
:1006C000D10759F06991D601ED91FC910190F0812B
:1006D000E02DC6011995892B79F7C501DF91CF91DE
:1006E0001F910F91FF90EF90DF90CF90BF90AF9050
:1006F0000895089508950895FC01A089B1898C9109
:10070000A689B78982FD0FC09C91818D8F5F8F7301
:10071000228D821749F0A18DAE0FBF2FB11D5D96BE
:100720009C93818F08958C910895FC01538D448D85
:10073000252F30E0842F90E0821B930B541710F08C
:10074000CF96089501970895FC01918D828D981799
:1007500061F0A28DAE0FBF2FB11D5D968C91928D71
:100760009F5F9F73928F90E008958FEF9FEF0895A2
:10077000FC01918D828D981731F0828DE80FF11D6B
:10078000858D90E008958FEF9FEF0895FC01918D86
:10079000228D892F90E0805C9F4F821B91098F737F
:1007A0009927089581E39BE0F1DF21E0892B09F48B
:1007B00020E0822F08958EEC9BE0E8DF21E0892B7A
:1007C00009F420E0822F08958BE69CE0DFDF21E032
:1007D000892B09F420E0822F0895FC01A48DA80F35
:1007E000B92FB11DA35ABF4F2C91848D90E0019673
:1007F0008F739927848FA689B7892C93A089B18993
:100800008C91837080648C93938D848D981306C033
:100810000288F389E02D80818F7D80830895EF9297
:10082000FF920F931F93CF93DF93EC0181E0888FAA
:100830009B8D8C8D98131AC0E889F989808185FF7A
:1008400015C09FB7F894EE89FF896083E889F9891C
:1008500080818370806480839FBF81E090E0DF911E
:10086000CF911F910F91FF90EF900895F62E0B8D71
:1008700010E00F5F1F4F0F731127E02E8C8D8E112C
:100880000BC00FB607FCFACFE889F989808185FF94
:10089000F5CFCE01A2DFF2CFEB8DEC0FFD2FF11DD6
:1008A000E35AFF4FF0829FB7F8940B8FEA89FB89D8
:1008B00080818062D0CFB3CF0F931F93CF93DF930C
:1008C0008C01D0E0C0E0F801EC0FFD1F64916623BD
:1008D00039F08BE69CE0A3DF892B11F02196F3CF52
:1008E000CE01DF91CF911F910F910895CF93DF93A8
:1008F000EC01888D8823B1F0AA89BB89E889F98940
:100900008C9185FD03C0808186FD0CC00FB607FC6D
:10091000F7CF8C9185FFF2CF808185FFEDCFCE019F
:100920005CDFEACFDF91CF91089580E090E0892BE2
:1009300021F04ADF81110E94000080E090E0892BC5
:1009400021F039DF81110E94000080E090E0892BC6
:1009500021F028DF81110E94000080E090E0892BC7
:1009600049F080E090E0892B29F00E94000081117D
:100970000C94000008958150823108F05AC0E82F8D
:10098000F0E08827E953FB4F8F4F0C944B2FE7047F
:10099000EB04D904DF04E3041905EE04F404F804BD
:1009A000FE04020506050C051005190514051A05B7
:1009B0001E05809180008F7780938000089580913C
:1009C00080008F7DF9CF80918000877FF5CF84B53F
:1009D0008F7784BD089584B58F7DFBCF8091B00063
:1009E0008F778093B00008958091B0008F7DF9CF0C
:1009F000809190008F77809390000895809190006F
:100A00008F7DF9CF80919000877FF5CF8091A000F6
:100A10008F778093A00008958091A0008F7DF9CFFB
:100A20008091A000877FF5CF809120018F77809300
:100A300020010895809120018F7DF9CF80912001C0
:100A4000877FF5CFCF93DF93282F30E0F901E95965
:100A5000FD4F8491F901E158FC4FD491F901E75C15
:100A6000FC4FC491CC2399F0811185DFEC2FF0E08D
:100A7000EE0FFF1FEB5FFC4FA591B491EC91ED23BE
:100A800081E090E009F480E0DF91CF91089580E06B
:100A900090E0FACF1F93CF93DF93282F30E0F90136
:100AA000E959FD4F8491F901E158FC4FD491F901C6
:100AB000E75CFC4FC491CC23A1F0162F81115BDFC2
:100AC000EC2FF0E0EE0FFF1FE15EFC4FA591B4911B
:100AD0008FB7F894EC91111108C0D095DE23DC9308
:100AE0008FBFDF91CF911F910895DE2BF8CFCF9369
:100AF000DF9390E0FC01E158FC4F2491875C9C4F10
:100B0000FC0184918823C9F090E0880F991FFC01B3
:100B1000E355FD4FA591B491FC01E15EFC4FC591F9
:100B2000D49161110DC09FB7F8948C9120958223C8
:100B30008C938881282328839FBFDF91CF910895CC
:100B4000623051F49FB7F8943C91822F80958323B3
:100B50008C93E8812E2BEFCF8FB7F894EC912E2B4E
:100B60002C938FBFEACF1F93CF93DF93182FEB0106
:100B700061E0BDDF209731F460E0812FDF91CF91FC
:100B80001F9188CFCF3FD10511F461E0F6CFE12F5F
:100B9000F0E0E959FD4FE491E150E23108F0B3C0D3
:100BA000F0E08827E952FA4F8F4F0C944B2FE9055C
:100BB000F105F60500060A06830614061C0624063F
:100BC0002E063806420651065B06830665066F064A
:100BD000790684B5806884BDC7BDDF91CF911F9130
:100BE000089584B5806284BDC8BDF7CF8091800030
:100BF000806880938000D0938900C0938800EDCFF7
:100C000080918000806280938000D0938B00C0939D
:100C10008A00E3CF80918000886080938000D09329
:100C20008D00C0938C00D9CF8091B00080688093F4
:100C3000B000C093B300D1CF8091B00080628093A8
:100C4000B000C093B400C9CF8091900080688093B9
:100C50009000D0939900C0939800BFCF80919000EE
:100C6000806280939000D0939B00C0939A00B5CF90
:100C700080919000886080939000D0939D00C093F5
:100C80009C00ABCF8091A00080688093A0008091F1
:100C9000A0008F7B8093A000D093A900C093A800F0
:100CA0009CCF8091A00080628093A000D093AB0085
:100CB000C093AA0092CF8091A00088608093A0008A
:100CC000D093AD00C093AC0088CF809120018068A4
:100CD00080932001D0932901C09328017ECF809179
:100CE0002001806280932001D0932B01C0932A01C0
:100CF00074CF80912001886080932001D0932D01D2
:100D0000C0932C016ACFC038D1050CF03ECF34CF50
:100D100090917B00977F90937B00865380648093B3
:100D20007C0080917A00806480937A0080917A00C0
:100D300086FDFCCF809178009091790008953FB7AF
:100D4000F89480916D0A90916E0AA0916F0AB0910B
:100D5000700A26B5A89B05C02F3F19F00196A11D6A
:100D6000B11D3FBFBA2FA92F982F8827BC01CD01F5
:100D7000620F711D811D911D42E0660F771F881F54
:100D8000991F4A95D1F708950F931F93CF93DF933F
:100D900000D000D000D0CDB7DEB78091C10D9091CA
:100DA000C20D892B09F465C0CADF0091C70D1091EF
:100DB000C80D2091C90D3091CA0D601B710B820BBB
:100DC000930B6C3271408105910570F3F89480911A
:100DD000BC0D9091BD0D9A838983E091C10DF09176
:100DE000C20DDF011196808189879091B80DE09145
:100DF000CB0DF091CC0D8091CD0D992309F444C019
:100E00009081982B98879081809589238F838F81FB
:100E10008C8388E08B8358856F8149853B812C8149
:100E200089819A81508347FD252F3A952083262F6B
:100E300039F0441F00C000006083000000C0F2CF02
:100E400038E04D9160830000019761F7F093CC0D7D
:100E5000E093CB0D49873B832C839A8389837894D5
:100E60006EDF6093C70D7093C80D8093C90D90938A
:100E7000CA0D29960FB6F894DEBF0FBECDBFDF9125
:100E8000CF911F910F9108959081982B9887908111
:100E9000809589238F838F818E8388E08D83588509
:100EA0006F8149853D812E8189819A81508347FDDB
:100EB000252F00C000C0208300C000C000C000C0BB
:100EC00000C060830000262F3A9541F0441F0000C7
:100ED00000C000C000C000C000C0E8CF38E04D91A5
:100EE00000C0608300C0019709F7F093CC0DE09338
:100EF000CB0D49873D832E83B0CF8F929F92AF92C7
:100F0000BF92CF92DF92EF92FF924B015C0117DF0D
:100F10006B017C0114DF6C197D098E099F09683E05
:100F2000734081059105B0F321E0821A9108A10870
:100F3000B10888EEC80E83E0D81EE11CF11C8114B4
:100F40009104A104B10431F7FF90EF90DF90CF90AE
:100F5000BF90AF909F908F9008952FB7F8946091B5
:100F6000690A70916A0A80916B0A90916C0A2FBF8E
:100F700008950F931F93F1DF6093D60B7093D70BF7
:100F80008093D80B9093D90B8EEC9BE0F1DB97FF0D
:100F90001CC0E3DF0091D60B1091D70B2091D80B2A
:100FA0003091D90B601B710B820B930B0091D20B0C
:100FB0001091D30B2091D40B3091D50B6017710792
:100FC0008207930708F38FEF9FEF1F910F9108950A
:100FD000CF92DF92EF92FF92CF93CBDFFC0197FD90
:100FE0004BC08D32910521F0C0970A9708F03EC0A2
:100FF000C12CD12C7601C0E0E130F105D1F0ED3209
:10100000F105C1F1CF01C0970A9798F4AAE0B0E0CA
:10101000A70196010E94942C6F01FF0FEE08FF08B4
:10102000C60ED71EE81EF91E80E3C81AD108E108D3
:10103000F1088EEC9BE088DB9CDFFC01C0970A97EF
:10104000D8F2E130F105C1F2CC2341F0F094E09404
:10105000D094C094C11CD11CE11CF11CC701B60185
:10106000CF91FF90EF90DF90CF9008958EEC9BE0B2
:101070006BDBB3CFC1E0DDCFC12CD12C7601EECF3D
:10108000CF92DF92EF92FF920F931F93CF93DF9354
:10109000CDB7DEB7C054D1400FB6F894DEBF0FBE57
:1010A000CDBF5BDF0091D70D1091D80D2091D90DE8
:1010B0003091DA0D6B017C01C01AD10AE20AF30A01
:1010C00097018601003D17402105310590F480917C
:1010D000DF0DC05CDE4F0FB6F894DEBF0FBECDBF94
:1010E000DF91CF911F910F91FF90EF90DF90CF9004
:1010F00008956093D70D7093D80D8093D90D909378
:10110000DA0D1092D20D1092D10D1092D00D1092D6
:10111000CF0D1092CE0D62E08091D30DE8DC61E03E
:1011200070E080E090E0E9DE61E08091D30DDFDCEB
:1011300060E08091D30DAEDC8091D40D855182307A
:1011400010F58BE291E10197F1F762E08091D30D08
:10115000CEDC8091E00D90E08230910538F0880F70
:10116000991F880F991F05970197F1F7F89480E070
:1011700058DA6F3F7F4F8F4F9F4F59F41092DF0D1A
:10118000789480E0A6CF64E170E080E090E0B5DE86
:10119000DCCF81E046DA6F3F7F4F8F4F9F4F71F377
:1011A0008E010F5F1F4F6E012FEBC21A2EEFD20A76
:1011B000780180E036DAF70160837183828393835C
:1011C00081E02FDAF7016483758386839783F8E0E3
:1011D000EF0EF11CEC14FD0461F7789430E020E090
:1011E000F801C080D180E280F3804481558166811E
:1011F0007781FFEFCF16DF06EF06FF0631F04F3F96
:101200008FEF58076807780719F41092DF0DB9CFF0
:10121000F90183E0F595E7958A95E1F7E253F24FFE
:101220008081880FC416D506E606F70610F1808384
:101230002F5F3F4F085F1F4F2832310589F64091DD
:10124000D20D2091CE0D8091CF0D280F3327331F63
:101250008091D00D280F311D8091D10D820F932FD9
:10126000911D99274817190681F681E08093DF0DBB
:1012700030CF8160DCCFBC016E5F7F4FDC01ED9130
:10128000FC910190F081E02D40E0199591E08111F1
:1012900090E0892F08958430F1F050F4813091F07E
:1012A00030F1823091F0833099F081E791E0089538
:1012B0008630B9F098F08730B9F08F3FB1F78FE7FB
:1012C00091E0089586E492E0089582E392E0089523
:1012D00088E192E008958CEF91E008958DEC91E023
:1012E00008958BEB91E0089581EA91E008958EE5F1
:1012F00092E0089508958EBD00000DB407FEFDCF65
:101300008EB50895DF92EF92FF920F931F93CF93C4
:10131000DF937C01062FD42E152F83E590E0B9D9F9
:1013200060E0F7018685B6DB82E1E5DFCD2DD12FC8
:101330000C0F1D2F111DC017D10719F08991DBDF8C
:10134000FACF61E0F7018685DF91CF911F910F9170
:10135000FF90EF90DF909ECB1F93CF93DF93EC0134
:10136000162F83E590E095D960E08E8593DB812F81
:101370008068C1DF80E0BFDF182F61E08E858ADBE7
:10138000812FDF91CF911F9108950F931F93CF93DA
:10139000DF93EC01062F142F83E590E07AD960E00B
:1013A0008E8578DB802FA7DF812FA5DF61E08E851A
:1013B000DF91CF911F910F916DCBCF92DF92EF9282
:1013C000FF920F931F93CF93DF93EC016B01142FC8
:1013D000790140E062E0D9DF44E06AE0CE01D5DF88
:1013E00040E864E1CE01D1DFA601612FCE018ADFA2
:1013F00043E062E0CE01C9DF08E813E16AE0CE0114
:10140000ABDF82FF18C040E062E0CE01BEDF64E4E3
:10141000CE01A2DFF701808362E4CE019DDFF701F8
:10142000818380E0DF91CF911F910F91FF90EF902A
:10143000DF90CF9008950150110901F783E0F2CFBA
:101440003F924F925F926F927F928F929F92AF9254
:10145000BF92CF92DF92EF92FF920F931F93CF93A1
:10146000DF931F921F92CDB7DEB73C01162F942E4B
:10147000290180E0A114B10411F0F5018081382C1C
:10148000329490EF3922380E40E062E0C3017DDFF4
:101490004FE768E0C30179DF40E864E1C30175DF2D
:1014A000A201602FC3012EDF432D6AE1C3016DDF6E
:1014B000412F62E0C30169DF1C3041F46AE1C301DE
:1014C0004BDF482F40686AE1C3015FDF00ED17E0A2
:1014D00068E0C30141DF982F992109F0A9C080FD80
:1014E00003C001501109A1F783E088C0E114F104A1
:1014F00009F462C0C114D10409F45EC064E1C301FF
:101500002BDF982EF6018081891508F48BC090821C
:10151000992091F183E590E0BCD860E0F3018685E5
:10152000B9DA9A9482E9E7DE882091F00FEF10E0B3
:1015300001C0000F8A94EAF782E9DDDE902F9095D2
:10154000F701208192238023982B90838824839411
:101550008701080D111D891438F482E9CCDEF801E9
:1015600081938F018394F7CF80E0C5DEF8018083FB
:1015700061E0F30186858EDA68E1C301EDDE8770F4
:10158000A114B10411F0F501808353FC4DC0E114A6
:10159000F10409F44BC0C114D10409F447C09F8978
:1015A000992309F443C0F6014081413039F4843075
:1015B00009F047C08FEF22C080E0E7CF423008F447
:1015C00040C081113EC042509E012F5F3F4FB70186
:1015D000C301F3DE811112C0F6019081E90EF11C06
:1015E000F70132972081998129132BC0F1E0EF1A7E
:1015F000F108F70120819A81291323C00F900F90E1
:10160000DF91CF911F910F91FF90EF90DF90CF90DE
:10161000BF90AF909F908F907F906F905F904F9012
:101620003F90089584E0EACF82E0E8CF80E0E6CF03
:101630006CE0C30191DE582E837109F457CF81E02D
:10164000DDCF87E0DBCF0F931F93CF93DF938C0128
:10165000D62FC42F81DEC0954C2F48236D2FC80193
:10166000DF91CF911F910F9190CE6F927F928F92C9
:10167000AF92BF92CF92DF92EF92FF920F93CF93F0
:10168000DF9300D01F921F92CDB7DEB73C0182E0FE
:101690008D8340E064E2C30178DE40E066E2C3018E
:1016A00074DE46E268E4C30170DE86E28B838D81DE
:1016B0008230B8F140E86CE1C301C5DF87E08C837C
:1016C0001F92812CCE0104965C0101966C01049757
:1016D0007C0101E09E012D5F3F4F40E36CE0C301C0
:1016E000AFDE982F0F90811119C08D818230C9F41F
:1016F0008C81811116C081E00F900F900F900F9098
:101700000F90DF91CF910F91FF90EF90DF90CF90EE
:10171000BF90AF908F907F906F90089581E092304E
:1017200059F380E0E9CF2F923F924F925F926F92F0
:101730007F928F929F92AF92BF92CF92DF92EF9261
:10174000FF920F931F93CF93DF93CDB7DEB72E9702
:101750000FB6F894DEBF0FBECDBF06E0413508F0EE
:1017600040C14E873B012C0140E86CE16CDF83E90E
:1017700089832E85222329F081E0F3019081953021
:1017800008F480E0992493941C869C85990F990F06
:10179000990F1E85191B17FD10E032E0882319F000
:1017A00098E89B8333E021E0912F977009F420E0C3
:1017B000912F959595959595290FD1F094E08111EC
:1017C00093E0291708F4922F2C85E22FF0E0319650
:1017D000E60DF71D232F4191A1E0B0E0AC0FBD1F36
:1017E000A20FB11D4C932F5F422F431B491798F353
:1017F0008111185F10320CF480C080E78A838B81DE
:101800009C8189279D8189279E8189278F839E01BD
:10181000285F3F4F47E0BE016F5F7F4FC201CDDDC4
:10182000082F8111DEC01A8693E09B871D87FE0179
:1018300037961F0109E08A84482D4295407F480D64
:101840006AE1C201A2DD1F92CE010A965C01FE018F
:101850003B966F0171019E012F5F3F4F40E36CE0AB
:10186000C201EEDD082F0F90823009F064C06CE1F8
:10187000C20172DD85FDB5C08F7109F480E2282FA9
:1018800030E0412F110F550B421753070CF09DC04C
:10189000182FE22FE595E595E595EF5F922F97706C
:1018A00081E009F480E0E80F81E090E08C0F9D1F5B
:1018B0008E0F911DFC01215031092770332781E0E3
:1018C00090E002C0880F991F2A95E2F79C01808161
:1018D000822B80838FCF85E98983FE85FF2331F0BA
:1018E00081E0F3019081983008F04FCF80E04DCF38
:1018F00087E98983F6E0FC87F9CF912F97709A8763
:10190000812F8595859585958E5F282F2295207F3F
:10191000290F2A8301E0911101C000E0080F222461
:101920002394312C2C0E3D1E280E311CF9E0F81B9F
:10193000FB871D8780CF811154C010E29D859032B6
:101940000CF45BCF8B81883809F041C083E093E0D1
:101950002C85E22FF0E03196E60DF71D980FA1E0FF
:10196000B0E0AC0FBD1FA80FB11D2C9121938F5F6C
:101970008913F5CF8B858C87833009F04CC08A851D
:10198000811149C09E012D5F3F4F41E0B101C2016D
:1019900014DD082F811125C09B81F10181819813ED
:1019A0003CC09C818281981338C0808182FF12C024
:1019B0009394F2E09F1609F48ECF23E0921609F477
:1019C00097CF81E0981609F4D2CE05E00AC082E0F4
:1019D00094E0BECFF3018387892D880F980E9394EE
:1019E0009082802F2E960FB6F894DEBF0FBECDBF2B
:1019F000DF91CF911F910F91FF90EF90DF90CF90EB
:101A0000BF90AF909F908F907F906F905F904F901E
:101A10003F902F90089501E0E4CF07E0E2CF2091BE
:101A2000450A260F3327331F21323105ECF420916C
:101A3000070BFC0190E080E0243069F082E008951B
:101A4000A091450A2191AC014B5D554FA40FB52FD4
:101A5000B11D2C930196861798F38091450A680F63
:101A60006093450A80E0089581E008951092070B85
:101A700081E08093060B1092E10A61E084E10AD8CC
:101A800061E085E107D8E9EBF0E080818E7F80831B
:101A900080818D7F808388E48093B80085E4809383
:101AA000BC000895CF93DF9391E09093240A88239C
:101AB000B1F0C091B800D091BA008091BC008A7B8F
:101AC0008093BC0060E084E10E944A0560E085E10B
:101AD0000E944A05CBDFD093BA00C093B800DF91D3
:101AE000CF910895CF92DF92EF92FF920F931F93C1
:101AF000CF93DF93D091300B81E0D13208F096C0C4
:101B0000C0912F0B1CD96B017C018091070B8111B7
:101B100069C082E08093070B81E08093060B8FEF12
:101B20008093050B1092040BD093030BAFE0BBE046
:101B3000E3EEFAE080E0D81388C01092E20A8091C8
:101B4000E20ACC0FC82BC093E20A8091E10A8130EF
:101B500009F07FC01092E10AF2D86B017C018091FC
:101B6000E20A8093BB008091090B90910A0BA0912F
:101B70000B0BB0910C0B892B8A2B8B2B99F0DFD898
:101B80000091090B10910A0B20910B0B30910C0B5B
:101B90006C197D098E099F09061717072807390751
:101BA00008F440C08091BC0083FDD9CF85EC8093C0
:101BB000BC00C5D86B017C018091070B823009F411
:101BC0004AC08091050B8F3F09F466C08091050BD8
:101BD000803209F463C08091050B803309F460C042
:101BE00084E024C08091090B90910A0BA0910B0B0B
:101BF000B0910C0B892B8A2B8B2B09F486CF9FD8A5
:101C00000091090B10910A0B20910B0B30910C0BDA
:101C10006C197D098E099F090617170728073907D0
:101C200008F073CF8091080B3DDF85E010920E0B1A
:101C30001092300B10920D0BDF91CF911F910F91ED
:101C4000FF90EF90DF90CF9008959D9191938F5FDB
:101C500072CF85EEACCF8091090B90910A0BA091C9
:101C60000B0BB0910C0B892B8A2B8B2B09F4A4CF77
:101C700066D80091090B10910A0B20910B0B309143
:101C80000C0B6C197D098E099F0906171707280789
:101C9000390708F091CFC6CF80E0C8CF82E0C6CF29
:101CA00083E0C4CFCF92DF92EF92FF920F931F9306
:101CB000CF93DF93D82FC62F613208F094C03FD85E
:101CC0006B017C018091070B811169C081E08093D9
:101CD000070B8093060B9FEF9093050B1092040B5C
:101CE0009C0F9093030B8093E20A8091E20ADD0F30
:101CF000D82BD093E20A8091E10A813009F075C0B7
:101D00001092E10A1CD86B017C018091E20A809359
:101D1000BB008091090B90910A0BA0910B0BB09125
:101D20000C0B892B8A2B8B2B99F009D80091090B6E
:101D300010910A0B20910B0B30910C0B6C197D0943
:101D40008E099F09061717072807390708F448C0A6
:101D50008091BC0083FDD9CF85EC8093BC000E94AC
:101D60009F066B017C018091070B813009F43FC015
:101D70008091040B8C1710F4C091040BE3EEFAE091
:101D8000A1ECBAE080E08C1354C08C2FDF91CF918E
:101D90001F910F91FF90EF90DF90CF900895809169
:101DA000090B90910A0BA0910B0BB0910C0B892B96
:101DB0008A2B8B2B09F486CF0E949F060091090B7A
:101DC00010910A0B20910B0B30910C0B6C197D09B3
:101DD0008E099F09061717072807390708F072CFE1
:101DE0008091080B5FDEC0E0D0CF85EEB6CF80914A
:101DF000090B90910A0BA0910B0BB0910C0B892B46
:101E00008A2B8B2B09F4AFCF0E949F060091090B00
:101E100010910A0B20910B0B30910C0B6C197D0962
:101E20008E099F09061717072807390708F09BCF67
:101E3000D7CF91919D938F5FA6CFE091C00A8091FB
:101E4000BF0AE81730F4F0E0EF53F54F808190E0DF
:101E500008958FEF9FEF08959091C00A8091BF0A77
:101E60002FEF3FEF981748F4E92FF0E0EF53F54FCD
:101E7000208130E09F5F9093C00AC901089580914E
:101E8000BF0A9091C00A891B990B0895CF92DF92E7
:101E9000EF92FF920F931F93CF93DF937C01CB01BF
:101EA0008A0120910D0B222389F0EB016B01C40EF6
:101EB000D51ECC15DD0561F06991D701ED91FC913E
:101EC0000190F081E02DC7011995F3CF642FA7DDB4
:101ED000C801DF91CF911F910F91FF90EF90DF909C
:101EE000CF900895CF93DF931F92CDB7DEB769836C
:101EF00020910D0B2223F9F02091300B203258F065
:101F000021E030E0FC013383228390E080E00F90F9
:101F1000DF91CF91089580910E0BE82FF0E0E15F03
:101F2000F44F998190838F5F80930E0B8093300BD9
:101F300081E090E0ECCF61E0CE01019670DDF8CF5A
:101F400090E080E00895FC01908190539A3008F071
:101F500090E0818180532AE0929F800D11240895A2
:101F600061E080E20E944A0566E970E080E090E06E
:101F70000E947D0760E080E20C944A0587E30E949E
:101F8000880628E833E1DC010E94532F2FEF33E06D
:101F900040E050E00E94782CB901330F880B990B78
:101FA0000E941E2B2FE93BEA4DE25EE30E94AD2C1E
:101FB0009B01AC0168E471EE8CED91E40E94122D5E
:101FC00020E030E04AE754E40E947D2B0E947A2D05
:101FD000CB010895CF92DF92FF920F931F93CF937F
:101FE000DF936C0181E080930D0B88E680932F0BCB
:101FF00010920E0B1092300B60E088E09DE072DFD3
:1020000071DD67E088E64EDE1092C00A8093BF0A59
:1020100088E09DE021DF8F77282F30E094E0359530
:1020200027959A95E1F7922F990F990FC22FC91B07
:10203000CC0FC80F88E09DE00FDF9C0144E0359590
:1020400027954A95E1F72F703327922F990F990F13
:10205000D22FD91BDD0FD80F88E09DE0FDDE9C015B
:1020600054E0359527955A95E1F72F703327922F35
:10207000990F990F122F191B110F180F88E09DE06F
:10208000EBDE88E09DE0E8DE9C0164E03595279575
:102090006A95E1F72F703327922F990F990F022F2E
:1020A000091B000F080F88E09DE0D6DE9C0174E05C
:1020B000359527957A95E1F72F703327922F990F51
:1020C000990FF22EF91AFF0CF80E88E09DE0C4DE9D
:1020D0009C01E4E035952795EA95E1F72F703327C9
:1020E000922F990F990F291B220F820FF6018083DF
:1020F000F18202831383D483C583C601DF91CF911C
:102100001F910F91FF90DF90CF90089581E0809311
:102110000D0B88E680932F0B10920E0B1092300B54
:102120006FE088E09DE0DEDEDDDC61E088E6BADDC0
:102130001092C00A8093BF0A88E09DE08DCE08957A
:10214000FF920F931F93CF93DF93EC0101E0009375
:102150000D0B18E610932F0B10920E0B1092300BF4
:1021600060E088E09DE0BEDE2D818AE0F82E822FBF
:102170006F2D0E94182F682F660F680F660F620F71
:1021800088E09DE0AFDE2C81822F6F2D0E94182FFA
:10219000682F660F680F660F620F88E09DE0A2DE71
:1021A0002B81822F6F2D0E94182F682F660F680FCA
:1021B000660F620F88E09DE095DE60E088E09DE0BC
:1021C00091DE2A81822F6F2D0E94182F682F660FB3
:1021D000680F660F620F88E09DE084DE2981822F00
:1021E0006F2D0E94182F682F660F680F660F620F01
:1021F00088E09DE077DE2881822F6F2D0E94182FC6
:10220000682F660F680F660F620F88E09DE06ADE38
:1022100069DC7CDFC82F00930D0B10932F0B1092FD
:102220000E0B1092300B6FE088E09DE05BDE6C2FB0
:102230006F7788E09DE056DEDF91CF911F910F917F
:10224000FF9050CCFC0180819181009711F00C949B
:10225000F52F0895FB0101900020E9F73197AF01B8
:10226000461B570B0C944C038F929F92AF92BF92D8
:10227000EF92FF920F931F93CF93DF93CDB7DEB70B
:10228000A1970FB6F894DEBF0FBECDBF7C01FA0157
:10229000CB0119A2223008F42AE08E010F5D1F4FF6
:1022A000822E912CB12CA12CBF01A50194010E947A
:1022B000562CF901CA016A3004F5605DD8016E93AD
:1022C0008D01232B242B252B79F790E080E01097AC
:1022D00019F0BD01C701BEDFA1960FB6F894DEBFAD
:1022E0000FBECDBFDF91CF911F910F91FF90EF9067
:1022F000BF90AF909F908F900895695CDFCF462F7D
:1023000050E070E060E02AE0AFCFCF92DF92EF9232
:10231000FF920F931F93CF93DF9377FF1CC06A0147
:102320007B01EC016DE20E945B048C014427552780
:10233000BA014C195D096E097F092AE0CE0194DFCC
:10234000800F911FDF91CF911F910F91FF90EF9020
:10235000DF90CF9008952AE0DF91CF911F910F91E8
:10236000FF90EF90DF90CF907FCFAB01770F660BA0
:10237000770BCBCF4F925F926F927F928F929F920B
:10238000AF92BF92CF92DF92EF92FF920F931F9383
:10239000CF936B017C01742EAC019B010E94FB2D3D
:1023A00065E972E0811126C046015701E894B7F84B
:1023B0002FEF3FEF4FE75FE7C501B4010E94FB2D10
:1023C00081110CC02FEF3FEF4FE75FE7C501B4016C
:1023D0000E94182B69E972E0181664F02FEF3FEFA6
:1023E0004FE75FE4C701B6010E94AB2D1816A4F4B5
:1023F0006DE972E081E39BE0CF911F910F91FF9017
:10240000EF90DF90CF90BF90AF909F908F907F9094
:102410006F905F904F901ECF2FEF3FEF4FE75FEC35
:10242000C701B6010E94182B87FDE2CF20E030E003
:10243000A901C701B6010E94182B10E000E087FF38
:102440000AC06DE281E39BE00E945B048C01F7FA15
:10245000F094F7F8F094C0E060E070E080E09FE373
:102460007C1641F020E030E040E251E40E94122D61
:10247000CF5FF6CFA70196010E94AE2C2B013C0145
:102480000E947F2D4B015C012AE0BC01A40181E385
:102490009BE0EADE7C01E00EF11ECC23C9F1C50110
:1024A000B4010E941C2B9B01AC01C301B2010E942C
:1024B000AD2C4B015C016EE281E39BE00E945B046A
:1024C000E80EF91EC15020F120E030E040E251E476
:1024D000C501B4010E947D2B2B013C010E947F2D80
:1024E0004B01B12CA12C2AE0B501A40181E39BE0B2
:1024F000BBDEE80EF91EC501B4010E941C2B9B0136
:10250000AC01C301B2010E94AD2C4B015C01DACFDA
:10251000C701CF911F910F91FF90EF90DF90CF9067
:10252000BF90AF909F908F907F906F905F904F90F3
:1025300008950F931F93CF93DF93EC018BDE8C01F3
:1025400061EA72E0CE0186DE800F911FDF91CF91AC
:102550001F910F91089564EA72E0811102C06CEA44
:1025600072E08BE69CE0E5CF8823A1F065EB72E09A
:102570008BE69CE0DEDF609107027091080282E04A
:102580000E94B30561E083E00E944A0581E08093E8
:10259000150A08956CEB72E08BE69CE0CADF60E000
:1025A00083E00E944A051092150A08958823A1F03D
:1025B00064EC72E08BE69CE0BCDF609103027091FA
:1025C00004028AE00E94B30561E088E00E944A05A7
:1025D00081E08093140A08956DEC72E08BE69CE034
:1025E000A8DF60E088E00E944A051092140A08956E
:1025F0006115710509F02ECE90E080E008950F93EB
:102600001F93CF93DF93EC0188819981009759F054
:102610002A813B812617370730F081E0DF91CF9187
:102620001F910F9108958B016F5F7F4F0E947E3045
:10263000009759F0998388831B830A832C813D81FD
:10264000232B59F7FC011082E8CF80E0E7CFCF922F
:10265000DF92EF92FF920F931F93CF93DF93CDB74B
:10266000DEB72E970FB6F894DEBF0FBECDBF7C014C
:10267000CB01BA012AE0AE014F5F5F4F6A010E94B1
:10268000D12AF60101900020E9F73197EC19FD09F4
:10269000D1F0D70114960D911C910E0F1F1FB80198
:1026A000C701ADDF882381F0F7012081318184816A
:1026B0009581B601820F931F0E946331D701159651
:1026C0001C930E93149781E02E960FB6F894DEBFFC
:1026D0000FBECDBFDF91CF911F910F91FF90EF9073
:1026E000DF90CF900895EF92FF920F931F93CF93B7
:1026F000DF93EC017B01198218821B821A821D82F2
:102700001C82FB0101900020E9F731978F01061B25
:10271000170BB80174DF28813981811113C021158D
:10272000310519F0C9010E94F52F198218821D8206
:102730001C821B821A82DF91CF911F910F91FF9013
:10274000EF9008951D830C83B701C901DF91CF91EC
:102750001F910F91FF90EF900C9463318F929F9295
:10276000AF92BF92CF92DF92EF92FF92CF93DF931F
:1027700000D000D0CDB7DEB78091FC09811108C030
:1027800063EA72E086EF99E0AEDF81E08093FC09B6
:1027900063EA72E0CE010196A6DF809100028823F1
:1027A000B9F0109200028EEC9BE00E94C603892BC8
:1027B00079F00E94E807AB01BC0186EF99E047DFA2
:1027C0008091FA099091FB099093F1098093F009A7
:1027D0008EEC9BE00E94C603892B09F46EC00E9418
:1027E000E8074B015C01AAE0B0E0AC019B010E944C
:1027F000942C6B017C01DC01CB01895E9340A10923
:10280000B109873D9342A940B10530F5B501A40156
:10281000CE0101961CDF2091EE093091EF098D81E8
:102820009E812230310544F09093F1098093F009A4
:102830001092EF091092EE092091F0093091F10900
:1028400028173907C1F08091EE099091EF090196A0
:102850009093EF098093EE092091F2093091F309EA
:102860004091F4095091F509AAE0B0E00E94942C3F
:102870006B017C010CC01092EF091092EE0980925E
:10288000F2099092F309A092F409B092F509CE01F1
:102890000196D8DCC701B60126960FB6F894DEBFC4
:1028A0000FBECDBFDF91CF91FF90EF90DF90CF9023
:1028B000BF90AF909F908F90089567ED72E08BE688
:1028C0009CE037DEC12CD12C7601E1CF47DF6134AB
:1028D0007D40834091052CF18091DA099091DB09CC
:1028E00001969093DB098093DA0948DB4497F4F46E
:1028F0008091D8099091D90901969093D909809334
:10290000D8098091DA099091DB090597A4F481E058
:102910002091D8093091D909253031056CF480E037
:1029200008951092DB091092DA09DFCF1092D909CD
:102930001092D809E6CF81E0089585ED8093BC0020
:102940008091090B90910A0BA0910B0BB0910C0B8D
:102950000796A11DB11D23E0B695A795979587957C
:102960002A95D1F72091BC0024FD03C01092070BDB
:1029700008954091090B50910A0B60910B0B7091D7
:102980000C0B452B462B472B69F30097A105B1058E
:1029900041F025E32A95F1F700000197A109B1095B
:1029A000E1CF8091080B7EC88F929F92AF92BF9229
:1029B000CF92DF92EF92FF921F93CF93DF9300D0DD
:1029C00000D0CDB7DEB7182F6091EC097091ED09FA
:1029D0006F5F7F4F7093ED096093EC09072E000C39
:1029E000880B990B0E941E2B20E030E04AEF53E445
:1029F0000E94182B882319F0112309F479C10E9431
:102A00004008882349F08091D40D8B3028F08D3018
:102A100050F085518230C8F1812C912C20ECA22EEF
:102A20002FE7B22E1EC06091CF0D70E090E080E0E5
:102A30000E941E2B2DEC3CEC4CEC5DE30E947D2BA8
:102A40006B017C016091CE0D70E090E080E00E940F
:102A50001E2B9B01AC01C701B6010E94AE2C4B019D
:102A60005C010E944008882309F475C08091D40D50
:102A70008C3009F44FC1D8F48B3091F1C12CD12C9A
:102A800080ECE82E8FE7F82E55C06091CE0D709146
:102A9000CF0D76276727762790E080E00E941C2BD9
:102AA0002DEC3CEC4CEC5DE30E947D2BD8CF8551A6
:102AB000823020F71091D00D612F70E0762F6627BD
:102AC00066277F778091D10D682B90E080E00E948F
:102AD0001C2B2DEC3CEC4CEC5DE30E947D2B36C1B5
:102AE0006091D00D70E090E080E00E941C2B6B01A3
:102AF0007C011091D10D17FF0AC0AC019B0160E071
:102B000070E080E89FEB0E94AD2C6B017C011F7090
:102B1000612F70E090E080E00E941E2B2DEC3CECD9
:102B20004CEC5DE30E947D2BA70196010E94AE2C28
:102B30006B017C01A5019401C501B4010E94FB2D2C
:102B4000811109C0A7019601C701B6010E94FB2DA2
:102B5000882309F404C168EE72E08BE69CE0E9DCAE
:102B6000FDDD6093E0097093E1098093E2099093A1
:102B7000E30904DA092E000CAA0BBB0B8093DC09D5
:102B80009093DD09A093DE09B093DF0988E30E94EA
:102B90008806BC01990F880B990B0E941E2B28E810
:102BA00034EF43EB5FEB0E94AF2D6B017C01609132
:102BB000E8097091E9098091EA099091EB0942E0F6
:102BC000D9DB64E975E081E39BE012DD6091E40903
:102BD0007091E5098091E6099091E70942E0CADB2E
:102BE00064E975E081E39BE003DD60910702709189
:102BF000080281E39BE0B9DB64E975E081E39BE0D7
:102C0000F7DC60910B0270910C0281E39BE0ADDB7D
:102C100064E975E081E39BE0EBDC4091E0095091D1
:102C2000E1096091E2097091E30981E39BE06DDBCA
:102C300064E975E081E39BE0DBDC4091DC095091C5
:102C4000DD096091DE097091DF0981E39BE05DDBC6
:102C500064E975E081E39BE0CBDC20E836E948E9F4
:102C600059E4C701B6010E947D2B0E947A2D81E3B1
:102C70009BE07BDB64E975E081E39BE0B9DC80915C
:102C8000150A61E070E0811102C070E060E081E34C
:102C90009BE06BDB64E975E081E39BE0A9DC80915C
:102CA000140A61E070E0811102C070E060E081E32D
:102CB0009BE05BDB64E975E081E39BE099DC1092CB
:102CC000ED091092EC09CE01019684D96C8181E363
:102CD0009BE015DB6CE281E39BE00E945B046D816D
:102CE00081E39BE00CDB61EA72E081E39BE0B2DA16
:102CF00026960FB6F894DEBF0FBECDBFDF91CF9101
:102D00001F91FF90EF90DF90CF90BF90AF909F907A
:102D10008F9008951091D00D612F70E090E080E0C9
:102D20000E941C2B6B017C016091D10D6F7070E0D3
:102D300090E080E00E941E2B2DEC3CEC4CEC5DE31F
:102D40000E947D2BA70196010E94AE2C6B017C0195
:102D500017FFF0CEF7FAF094F7F8F094EBCE8092EC
:102D6000E8099092E909A092EA09B092EB09C092B1
:102D7000E409D092E509E092E609F092E709F0CE85
:102D8000CF92DF92EF92FF920F931F93CF93DF9337
:102D9000CDB7DEB7CE010C96FC01C190D1907F017A
:102DA0009F01A60170E060E090E080E00E946A313F
:102DB00001960E94592F8C01A701B6010E94A231F1
:102DC000B8018BE69CE014DC0115110519F0C8016F
:102DD0000E94F52FDF91CF911F910F91FF90EF90FF
:102DE000DF90CF900895CF93DF93CDB7DEB7CA556C
:102DF000D1090FB6F894DEBF0FBECDBF84E5E3E185
:102E0000F2E0DE01119601900D928A95E1F7CE0174
:102E10008B5A9F4FDFD860E677E08BE69CE0E8DBDB
:102E200066964FAD669750E04053584F052E000C04
:102E3000660B770B2AE08BE69CE016DA6FE28BE6F6
:102E40009CE00E945B0467966FAD67978BE69CE001
:102E500056DA6FE28BE69CE00E945B0468966FADE9
:102E600068978BE69CE04BDA60E677E08BE69CE0C7
:102E7000BFDB67966FAD679766969FAD6697492FE4
:102E800050E068968FAD6897282F30E0E6E6F1E0D5
:102E900081E0861730F47491270F311D8F5F3196D2
:102EA000F8CF633020F0937011F42F5F3F4F6DE641
:102EB00071E0469FC001479F900D569F900D1124D1
:102EC00005964D5F5F4F5695479556954795840FEC
:102ED000951F820F931F67E070E00E94242F2CE063
:102EE000289FB001299F700D112481E090E08C0F84
:102EF0009D1F680F791F8BE69CE07ADB60E677E028
:102F00008BE69CE075DB69966FAD69978BE69CE07C
:102F1000F6D96AE38BE69CE00E945B046A966FAD8B
:102F20006A978BE69CE0EBD96AE38BE69CE00E9413
:102F30005B046B966FAD6B978BE69CE0E0D960E22B
:102F40008BE69CE00E945B0480910B0290910C0246
:102F50008330910509F462C00CF050C081309105B6
:102F600009F459C06AE173E0029709F450C08091F6
:102F7000BC0A882329F064E773E08BE69CE038DB29
:102F80008091B00A882339F18091B20A1F928F9301
:102F90008091B10A1F928F9388E893E09F938F935B
:102FA000EFDE8091090290910A020F900F900F902E
:102FB0000F900F900F9066EA73E0009749F06CEB6A
:102FC00073E08130910521F0029729F465ED73E0FB
:102FD0008BE69CE00DDB63EA72E08BE69CE0A9DA0D
:102FE00010929D0A10929C0AC65ADF4F0FB6F894B1
:102FF000DEBF0FBECDBFDF91CF9108958530910523
:1030000099F07CF062E673E0069709F0B0CF8BE6AA
:103010009CE0EEDAACCF68E073E0F9CF6CE273E0ED
:10302000F6CF6EE373E0F3CF60E573E0F0CFCF93BC
:10303000DF93EC018CE10E942205019709F0DEC0CC
:1030400080911E0A90911F0AA091200AB091210A36
:103050000196A11DB11D80931E0A90931F0AA09393
:10306000200AB093210AAE010D2E000C660B770BDF
:1030700084179507A607B70731F50E94B00F8EEEAB
:1030800093E09F938F937CDE0F900F908091B80A0E
:103090009091B90A892B91F080910B0290910C02CA
:1030A000019790930C0280930B0210921E0A1092CB
:1030B0001F0A1092200A1092210A05C066E074E0EF
:1030C0008BE69CE036DA8EE10E942205019709F03A
:1030D000B0C080911A0A90911B0AA0911C0AB0916D
:1030E0001D0A0196A11DB11D80931A0A90931B0A17
:1030F000A0931C0AB0931D0AAE010D2E000C660BA6
:10310000770B84179507A607B707A9F40E94B00F9D
:1031100085E294E09F938F9333DE0F900F90809120
:10312000BA0A9091BB0A892B09F06FC06DE374E075
:103130008BE69CE0FED98EE10E942205019709F002
:103140007FC08CE10E942205019709F079C010929E
:103150001A0A10921B0A10921C0A10921D0A109251
:103160001E0A10921F0A1092200A1092210A409102
:10317000160A5091170A6091180A7091190A4F5F48
:103180005F4F6F4F7F4F4093160A5093170A60931B
:10319000180A7093190ACE01DD0FAA0BBB0B481752
:1031A00059076A077B0709F058C08CE594E09F93A4
:1031B0008F93E6DD0F900F9080910B0290910C029F
:1031C000039709F44AC00E94B00F8091B70A882380
:1031D00009F446C01092B70A64E774E08BE69CE0FD
:1031E000A8D980E00E943E026FEF7FEF8FEF90E062
:1031F0000E94E802DF91CF910C94C4068CE10E94FA
:103200002205892B09F05FCF50CF80910B0290915E
:103210000C02019690930C0280930B0281E0C4DBB8
:1032200010921A0A10921B0A10921C0A10921D0A80
:1032300082CF8EE10E942205892B09F07CCFF0CF4E
:103240008EE10E942205892BA9F41092160A109291
:10325000170A1092180A1092190ADF91CF91089557
:1032600081E08093B70A62E874E08BE69CE061D964
:103270008FEFB8CF8CE10E942205892B31F3EDCF7F
:103280003F924F925F926F927F928F929F92AF92F6
:10329000BF92CF92DF92EF92FF920F931F93CF9343
:1032A000DF93CDB7DEB764970FB6F894DEBF0FBEDD
:1032B000CDBF81E39BE00E94C603892B19F081E01A
:1032C0008093BC0A81E39BE00E94B803019609F455
:1032D0004EC381E39BE00E94A4038C016AE070E08E
:1032E00080E090E00E947D07F801E156F109EA31A3
:1032F000F10508F027C08827EF57F64E8F4F0C9442
:103300004B2F9B19A219D91BA219A219BE1AA219D7
:10331000B21AA219A219A2190A1BAE19A219A2194E
:10332000A219A219DC1BA219E819A219601AA21984
:10333000A219A219071B81E08093BC0A1092BE0A51
:103340001092BD0A81E39BE00E94B803019609F444
:103350000EC381E39BE00E94A403F4CF81E39BE0D2
:103360000E94A4038E36C9F48FE894E09F938F9354
:1033700007DD0F900F908091BA0A9091BB0A6DE320
:1033800074E0892B09F180910B0290910C02019657
:1033900090930C0280930B02D5CF823699F68DEA7A
:1033A00094E09F938F93ECDC0F900F908091B80A7C
:1033B0009091B90A892B31F080910B0290910C0207
:1033C0000197E6CF66E074E08BE69CE0B2D8BACF16
:1033D000E1E1FAE083E0DF011D928A95E9F76AE016
:1033E00070E080E090E00E947D0781E39BE00E9416
:1033F000B80310E000E08237910579F48BEC94E09B
:103400009F938F93BDDC1092B00A60E090E080E063
:103410000E94392C0F900F9095CF81E39BE00E9482
:10342000A4037801B1E0EB22FF24F701EF5EF54F32
:1034300080836AE070E080E090E00E947D07EF28E2
:1034400081F01092130A81E19AE00E94AB2AE09188
:10345000100A91E09E0F9093100AF0E0EF54F54FA0
:1034600080830F5F1F4F04301105B9F68091B20AB7
:103470001F928F938091B10A1F928F938AEE94E0EE
:103480009F938F937DDC61E090E080E00E94392C77
:103490006091B10A81E090E00E94392C6091B20AFB
:1034A00082E090E00E94392C1092100A81E0809313
:1034B000B00A0F900F900F900F900F900F9042CF87
:1034C00081E39BE00E94B8038337910509F03FC078
:1034D00081E39BE00E94A40365E070E080E090E05F
:1034E0000E947D0701E11AE081E39BE00E94A403B2
:1034F000F80181938F0165E070E080E090E00E9428
:103500007D07FAE004311F0779F781E19AE00E9414
:10351000AB2A80930302909304029F938F938EE1D2
:1035200095E09F938F932CDC6091030270910402CD
:103530008AE00E94B305E1E1FAE083E0DF011D9239
:103540008A95E9F70F900F900F900F90FBCE81E3D3
:103550009BE00E94A403C19719F481E027D8F2CE22
:1035600080E0FCCF81E39BE00E94A403C19721F49B
:1035700081E00E94AB12E6CE80E0FBCF81E39BE0CE
:103580000E94B80383379105B1F581E39BE00E9467
:10359000A40365E070E080E090E00E947D0701E117
:1035A0001AE081E39BE00E94A403F80181938F015C
:1035B00065E070E080E090E00E947D07FAE0043171
:1035C0001F0779F781E19AE00E94AB2A80930702F6
:1035D000909308029F938F9382E395E09F938F933C
:1035E000CFDB60910702709108027093060260932E
:1035F000050282E09ECF81E39BE00E94A403C19775
:1036000021F481E00E94B4129DCE80E0FBCF6AE4F9
:1036100075E0DACE81E39BE00E94B8038536910520
:1036200009F059C06CE575E08BE69CE00E949912A8
:1036300060E070E0CB010E94E8020E94C406109294
:10364000B70A8091B70A882309F47CCE80910B02D7
:1036500090910C02049709F475CE8CE09AE00E94D8
:10366000AB2A082FD92E88E09AE00E94AB2A182FA7
:10367000E92E84E09AE00E94AB2AF82E80910202A3
:103680008F93809101028F93DF920F93EF921F939C
:103690009F93FF9285E795E09F938F9371DB8091D5
:1036A0000102909102020FB6F894DEBF0FBECDBFAB
:1036B000009711F00E943E02612F70E090E080E0E0
:1036C000982F872F762F66278F29602B0E94E8027C
:1036D0000E94C40637CE81E39BE00E94B803803786
:1036E0009105C9F569E675E08BE69CE00E949912A8
:1036F00081E39BE00E94A40365E070E080E090E03D
:103700000E947D0704E01AE030E1C32E3AE0D32E98
:10371000F12CE12C81E39BE00E94A403F801EE0D63
:10372000FF1D808361E070E080E090E00E947D07F3
:10373000BFEFEB1AFB0AE3E0EE16F10459F7D801EC
:1037400013961C920C5F1F4FC016D10609F781E03B
:103750008093B70A76CF81E39BE00E94B80382365C
:10376000910509F06ECF81E39BE00E94A40365E020
:1037700070E080E090E00E947D0701E11AE081E3C3
:103780009BE00E94A403F80181938F0165E070E043
:1037900080E090E00E947D07FAE004311F0779F78E
:1037A00081E19AE00E94AB2A909302028093010289
:1037B00048CF1092BC0AC6CD63E975E081E39BE077
:1037C0000E94F8126091B10A81E39BE00E947F1190
:1037D00064E975E081E39BE00E94F8126091B20A0F
:1037E00081E39BE00E947F1161EA72E081E39BE04C
:1037F0000E942A118E010F5F1F4F5E013FE0A30E52
:10380000B11C780181E39BE00E94A403082E000C08
:10381000990BD7018D939D937D01AA15BB0591F757
:1038200066E975E08BE69CE00E94F812C980DA80B8
:10383000B6018BE69CE00E94B5116EEC75E08BE65C
:103840009CE00E94F8123B807C81632D8BE69CE01B
:103850000E94B5116EEC75E08BE69CE00E94F812B8
:103860004D807E81642D8BE69CE00E94B51160E660
:1038700077E08BE69CE00E94F8125F807885652DEA
:103880008BE69CE00E94B51160ED75E08BE69CE054
:103890000E94F81269847A85662D8BE69CE00E946E
:1038A000B51160ED75E08BE69CE00E94F8127B8418
:1038B0007C85672D8BE69CE00E94B51160E677E081
:1038C0008BE69CE00E94F81262ED75E08BE69CE0CE
:1038D0000E94F8128D849E84B4018BE69CE00E94C5
:1038E000B5119801245F3F4FF12CE12CEAE0F0E0A4
:1038F000D8018D919D918D01BF010E94382FE60E58
:10390000F71EE80EF91E2017310791F769EE75E0F2
:103910008BE69CE00E94F812B7018BE69CE00E94C7
:10392000B5118E149F04C1F460E076E08BE69CE054
:103930000E949912C6018053984F803DB7E09B07C3
:1039400008F0C6018F87388A498A5A8A6B8A7C8A2E
:10395000C5010E94A010F6CC6DE176E08BE69CE0FC
:103960000E94991264EA78E081E39BE02FCD64968F
:103970000FB6F894DEBF0FBECDBFDF91CF911F9180
:103980000F91FF90EF90DF90CF90BF90AF909F90FE
:103990008F907F906F905F904F903F900895CF935E
:1039A000DF930E94BE0FEC018091B70A882379F063
:1039B0006CE575E08BE69CE00E94991260E070E097
:1039C000CB010E94E8020E94C4061092B70A8091BF
:1039D000D6099091D7099C012F5F3F4F3093D709AB
:1039E0002093D609883E934079F4DF93CF938CE4FB
:1039F00096E09F938F93C4D91092D7091092D6095D
:103A00000F900F900F900F9040E050E068E170E051
:103A1000C431D105C4F06E9794F440E058E160E001
:103A200070E090E080E00E947F02C1E08AE00E94A6
:103A30003E020E94C4068C2FDF91CF91089548E189
:103A400050E060E070E090E080E00E947F02C0E023
:103A5000EDCF1F920F920FB60F9211240BB60F925B
:103A60002F933F934F935F936F937F938F939F9386
:103A7000AF93BF93EF93FF9381E39BE00E94ED032D
:103A8000FF91EF91BF91AF919F918F917F916F9136
:103A90005F914F913F912F910F900BBE0F900FBEF2
:103AA0000F901F9018951F920F920FB60F9211242E
:103AB0000BB60F922F933F934F935F936F937F9328
:103AC0008F939F93AF93BF93EF93FF9381E39BE01B
:103AD0000E947C03FF91EF91BF91AF919F918F91D5
:103AE0007F916F915F914F913F912F910F900BBEFE
:103AF0000F900FBE0F901F9018951F920F920FB648
:103B00000F9211240BB60F922F933F934F935F9315
:103B10006F937F938F939F93AF93BF93EF93FF9395
:103B20008EEC9BE00E94ED03FF91EF91BF91AF916E
:103B30009F918F917F916F915F914F913F912F91C5
:103B40000F900BBE0F900FBE0F901F9018951F92F5
:103B50000F920FB60F9211240BB60F922F933F9333
:103B60004F935F936F937F938F939F93AF93BF9385
:103B7000EF93FF938EEC9BE00E947C03FF91EF910B
:103B8000BF91AF919F918F917F916F915F914F9175
:103B90003F912F910F900BBE0F900FBE0F901F9073
:103BA00018951F920F920FB60F9211240BB60F9219
:103BB0002F933F934F935F936F937F938F939F9335
:103BC000AF93BF93EF93FF938BE69CE00E94ED03CE
:103BD000FF91EF91BF91AF919F918F917F916F91E5
:103BE0005F914F913F912F910F900BBE0F900FBEA1
:103BF0000F901F9018951F920F920FB60F921124DD
:103C00000BB60F922F933F934F935F936F937F93D6
:103C10008F939F93AF93BF93EF93FF938BE69CE0BB
:103C20000E947C03FF91EF91BF91AF919F918F9183
:103C30007F916F915F914F913F912F910F900BBEAC
:103C40000F900FBE0F901F9018951F920F920FB6F6
:103C50000F9211242F933F938F939F93AF93BF9312
:103C60008091690A90916A0AA0916B0AB0916C0ADE
:103C70003091680A23E0230F2D3758F50196A11DD6
:103C8000B11D2093680A8093690A90936A0AA093F1
:103C90006B0AB0936C0A80916D0A90916E0AA091A4
:103CA0006F0AB091700A0196A11DB11D80936D0A33
:103CB00090936E0AA0936F0AB093700ABF91AF9170
:103CC0009F918F913F912F910F900FBE0F901F905A
:103CD000189526E8230F0296A11DB11DD2CF1F9281
:103CE0000F920FB60F9211240BB60F922F933F93A2
:103CF0004F935F936F937F938F939F93AF93BF93F4
:103D0000EF93FF938091B900887F803609F44DC00E
:103D100008F040C0883209F4A9C028F5803109F4C0
:103D20009DC0C8F4882309F4FBC0883009F496C00C
:103D3000FF91EF91BF91AF919F918F917F916F9183
:103D40005F914F913F912F910F900BBE0F900FBE3F
:103D50000F901F901895883109F488C0803241F780
:103D60008093050B14C0803409F49DC040F4803367
:103D7000B9F38833E9F68093050B85ECB0C0803544
:103D800009F485C0883509F496C0883489F60E9404
:103D90009D14CECF883909F48CC038F5883729F0C6
:103DA00050F4883611F0803719F683E08093070BC2
:103DB0001092670A57C0883809F47BC0803919F01F
:103DC000803809F0B5CF8091670A803208F071C061
:103DD000E091670A81E08E0F8093670A8091BB00B3
:103DE000F0E0E95BF54F80833DC0803B39F0E0F4C3
:103DF000803A09F479C0883A09F09ACF84E0809338
:103E0000070B1092460A1092450AE091A80AF09119
:103E1000A90A19958091450A81110FC081E080930C
:103E2000450A1092250A09C0803C09F4A6CF883CB7
:103E300009F4A3CF883B09F07BCFE091460A81E0EB
:103E40008E0F8093460AF0E0EB5DF54F8081809302
:103E5000BB009091460A8091450A29C08091E20AF0
:103E60008093BB0085EC8093BC0062CF9091040BE3
:103E70008091030B981758F5E091040B81E08E0FA9
:103E80008093040BF0E0ED51F54F8081E9CFE09194
:103E9000040B81E08E0F8093040B8091BB00F0E057
:103EA000ED51F54F80839091040B8091030B98178F
:103EB000C8F285E8D8CFE091040B81E08E0F8093A3
:103EC000040B8091BB00F0E0ED51F54F80838091B1
:103ED000060B81115CCF81E08093E10A84EA809334
:103EE000BC001092070B24CF85EC8093BC0010928D
:103EF000070B8091670A803230F4E091670AF0E0A6
:103F0000E95BF54F10826091670A70E0E091AA0AC0
:103F1000F091AB0A87E49AE019951092670A08CFEE
:103F20001092050B34CF1F920F920FB60F921124EF
:103F30000F900FBE0F901F9018951F920F920FB603
:103F40000F9211240BB60F922F933F934F935F93D1
:103F50008F939F93AF93BF93EF93FF93E4E1FDE0C3
:103F600086859785892B81F18489882369F18081F1
:103F7000823021F482899389892B31F1248535851A
:103F80002F5F3F4F3587248740895189A581B681AE
:103F900081859C914217530768F1892B8C93248566
:103FA0003585868597852817390770F0158614861C
:103FB0008081823049F48289938901978E3F2FEF67
:103FC000920710F4938B828B76968DE0EC36F8078F
:103FD00039F6FF91EF91BF91AF919F918F915F91D2
:103FE0004F913F912F910F900BBE0F900FBE0F90EE
:103FF0001F90189580958923D1CF1092340B109281
:10400000330B88EE93E0A0E0B0E08093350B909303
:10401000360BA093370BB093380B25E732E0309383
:10402000320B2093310B45ED50E050933E0B409303
:104030003D0B44ED50E05093400B40933F0B40ED5F
:1040400050E05093420B4093410B41ED50E05093B0
:10405000440B4093430B42ED50E05093460B40938A
:10406000450B46ED50E05093480B4093470B1092A0
:104070004A0B10924B0B10924C0B10924D0B10925E
:10408000D10B1092D00B8093D20B9093D30BA093B3
:10409000D40BB093D50B3093CF0B2093CE0B4DECBC
:1040A00050E05093DB0B4093DA0B4CEC50E0509314
:1040B000DD0B4093DC0B48EC50E05093DF0B40935A
:1040C000DE0B49EC50E05093E10B4093E00B4AECDF
:1040D00050E05093E30B4093E20B4EEC50E05093D2
:1040E000E50B4093E40B1092E70B1092E80B109253
:1040F000E90B1092EA0B10926E0C10926D0C8093EB
:104100006F0C9093700CA093710CB093720C309361
:104110006C0C20936B0C25EC30E03093780C2093E2
:10412000770C24EC30E030937A0C2093790C20EC5F
:1041300030E030937C0C20937B0C21EC30E030930A
:104140007E0C20937D0C22EC30E03093800C209389
:104150007F0C26EC30E03093820C2093810C10927F
:10416000840C1092850C1092860C1092870C109281
:104170000B0D10920A0D80930C0D90930D0DA093D2
:104180000E0DB0930F0D87E892E09093090D809388
:10419000080DE4E1FDE02CE63DE081E015861486A3
:1041A00017861686118A108A138A128A148A858BBA
:1041B00076962E173F0791F71092720D1092730D9D
:1041C0001092740D1092750D1092760D1092770D5D
:1041D0001092780D1092790D10927A0D10927B0D3D
:1041E00010927C0D10927D0D10927E0D10927F0D1D
:1041F0001092800D1092810D96E39093D30D9BE069
:104200009093D40DE5EBF3E0E491E093D50DEFE668
:10421000F3E0E491E093D60D40E85EE360E070E007
:104220004093DB0D5093DC0D6093DD0D7093DE0D3C
:104230001092B90D1092C00D1092C70D1092C80DBA
:104240001092C90D1092CA0D8093C60D8093C30DB4
:104250001092C40D92E09093C50D8093B80D89E340
:1042600090E09093BD0D8093BC0D0E94592F9093C8
:10427000C20D8093C10D009709F436C029E3FC01FB
:1042800011922A95E9F783E190E09093BB0D80931A
:10429000BA0D8AE190E09093BF0D8093BE0D80919E
:1042A000B90D882341F061E08AE10E94770560E062
:1042B0008AE10E944A05E3E5F3E0E491F0E0EE0FC5
:1042C000FF1FE15EFC4F859194919093CC0D8093FC
:1042D000CB0DE9E9F3E0E491E093CD0D6EE676E0F5
:1042E00082EB9DE00C9473131092BD0D1092BC0DE7
:1042F0001092BB0D1092BA0DCCCFCF93DF93CDB7F8
:10430000DEB7E3970FB6F894DEBF0FBECDBF78944B
:1043100084B5826084BD84B5816084BD85B58260CA
:1043200085BD85B5816085BD80916E00816080937B
:104330006E001092810080918100826080938100E4
:1043400080918100816080938100809180008160F4
:10435000809380008091B10084608093B10080914F
:10436000B00081608093B000809191008260809362
:1043700091008091910081608093910080919000E4
:104380008160809390008091A10082608093A10061
:104390008091A10081608093A1008091A000816044
:1043A0008093A000809121018260809321018091FF
:1043B000210181608093210180912001816080939F
:1043C000200180917A00846080937A0080917A0045
:1043D000826080937A0080917A00816080937A0075
:1043E00080917A00806880937A001092C1001092C8
:1043F000AE0D1092AF0D1092B00D1092B10D109243
:104400006E0D10926F0D1092700D1092710D0E9432
:10441000AD076B017C014B015C0128EB820E2BE0A8
:10442000921EA11CB11C0E94AD076C157D058E0566
:104430009F0528F086169706A806B906A0F768EE2D
:1044400073E080E090E00E947D078BE69CE00E9494
:1044500017020E94AD0760936E0D70936F0D8093ED
:10446000700D9093710D63E776E08BE69CE00E94FF
:10447000F8120E94AD076B017C014B015C013AE030
:10448000830E911CA11CB11C0E94AD076C157D050B
:104490008E059F0528F086169706A806B906A0F790
:1044A00081E08093820D0E94AD0760936E0D709342
:1044B0006F0D8093700D9093710D64E876E08BE63C
:1044C0009CE00E94F8128BE69CE00E9417028EECA2
:1044D0009BE00E94170281E39BE00E94170262E0CA
:1044E0008091D30D0E9477050E94AD07605D7740F3
:1044F000810991096093D70D7093D80D8093D90DE0
:104500009093DA0D87E38093E00D1092C00A109229
:10451000BF0A10920E0B1092300B0E94360D89E7E5
:1045200093E09093A90A8093A80A8AE793E0909376
:10453000AB0A8093AA0A1FB7F8948091710A81117F
:1045400027C0EEE6F3E08491E4EBF3E09491E82FEA
:10455000F0E0EE0FFF1FE355FD4FA591B491EC91F4
:10456000E92321F461E085E30E944A0561E085E3E7
:104570000E9477058CB580618CBD8CB580648CBD44
:1045800061E084E30E94770561E083E30E947705A0
:104590008091710A8F5F8093710A1FBF4BE050E0DA
:1045A00060ED72E0CE0101961C01F2D7CE010A96B1
:1045B0000E94A30F8B8BE981E154E33130F50E2E7D
:1045C000000CFF0B8827E851FD4D8F4F0C944B2FAB
:1045D000E82605230523FC260523E62605230523D7
:1045E0000523FB2205230523EF26FA26F8260523BB
:1045F00005230523F6268A81813609F4E3C38B81DE
:104600008E3609F0E1C386E08C8BCE0105960E94C0
:10461000A30F8D8B48E050E067EC72E0C101B8D782
:10462000C1010E94A30F8E8BCE0104960E94A30F9E
:104630008F8BCE0107960E94A30F888FCE014396E1
:104640000E94A01060E08CE10E94770560E08EE19E
:104650000E94770561E080E20E94770561E086E1D3
:104660000E94770560E088E30E94770560E08CE1B6
:104670000E944A0560E08EE10E944A0560E080E207
:104680000E944A058091B100887F81608093B100CB
:1046900080919100887F81608093910060E082E04A
:1046A0000E94770560E08AE00E94770561E083E080
:1046B0000E94770561E088E00E94770560E084E071
:1046C0000E944A0560E089E00E944A0580E80E9455
:1046D0003E028091BE0D9091BF0D97FD08C061E034
:1046E0000E94770560E08091BE0D0E944A0581E03E
:1046F0008093B90D0E94C40687E0D1011D928A956E
:10470000E9F7710110E000E0C8010E94312CF701C7
:1047100081937F010F5F1F4F07301105A9F7898132
:10472000813041F48093B00A8A818093B10A8B81F1
:104730008093B20A6BE876E08BE69CE00E949912C7
:10474000AC81AA2309F45AC3B0E020E432E44FE07C
:1047500050E00E94942C0091720A1091730A2091EB
:10476000740A3091750AAB01BC01400F511F621FE2
:10477000731FED8120E137E2E29FC001E39F900DBE
:104780001124092E000CAA0BBB0B480F591F6A1FDE
:104790007B1F8E81F4E68F9FC0011124092E000C2F
:1047A000AA0BBB0B840F951FA61FB71F2F81AC014F
:1047B000BD01420F511D611D711D4093720A50933E
:1047C000730A6093740A7093750A82EB9DE00E94ED
:1047D00027138091750A8F938091740A8F9380912B
:1047E000730A8F938091720A8F9380E097E09F9372
:1047F0008F930E94C0160F900F900F900F900F9004
:104800000F906EE377E08BE69CE00E94991280E0C7
:104810000E94D61280E00E94B4129E01275D3F4F95
:104820003FA72EA70E9440198CE291E00E94171822
:1048300080E00E94D41480919C0A90919D0A9C0172
:104840002F5F3F4F30939D0A20939C0A843F9140F5
:1048500011F40E94F31680919A0A90919B0A9C0190
:104860002F5F3F4F803D974009F4CFC230939B0AA2
:1048700020939A0A80910B0290910C02823091054C
:1048800009F02CC481E090E09093BB0A8093BA0AAF
:104890001092B90A1092B80A8091B70A81110AC021
:1048A0000E943E026FEF7FEF8FEF90E00E94E802E0
:1048B0000E94C40610920A021092090280910B0213
:1048C00090910C02049709F0E4C0C1010E94EA0F24
:1048D0008C814CE32D8130E0849F200D311D11240B
:1048E0005091B10A8091B20A90E0549F800D911DC1
:1048F0001124821793070CF04DC4821B930B805632
:104900009A4F89970CF449C481E090E090930A0291
:104910008093090281E090E09093BB0A8093BA0AE9
:104920008091A00A81110BC080910702909108022A
:1049300090939F0A80939E0A81E08093A00A81E071
:104940000E94D41480919C0A90919D0A01969093A4
:104950009D0A80939C0A0E94F31660E070E0CB01F0
:104960000E94E8020E94C4061092080210920702F8
:1049700081E00E94B41210E000E00E94AD0768AB35
:1049800079AB8AAB9BAB81E00835E2E01E0729F0EA
:104990000038F5E21F0719F480E00E94D612C80122
:1049A0006AE070E00E94242FF62EE72E892B09F092
:1049B0003DC47F936F9322E637E03F932F930E948D
:1049C000C0160F900F900F900F9080910B02909156
:1049D0000C02049709F0E4C381E00E94D414083566
:1049E00052E0150708F0E1C320910502309106025C
:1049F000032E000C440B550B285231094109510973
:104A0000AF2DBE2D91D72CE330E040E050E070D7C1
:104A1000DA01C9018896A11DB11D80930702909308
:104A200008029F938F938FE997E09F938F930E9443
:104A3000C016609107027091080282E00E94B305DF
:104A40000F900F900F900F900E9440198AE090E015
:104A50000E94171880910B0290910C0283309105EF
:104A600009F010C480E00E94D61280E00E94B412C7
:104A700080919E0A90919F0A90930802809307026A
:104A800080910B0290910C02019790930C028093FD
:104A90000B0280910B0290910C02059709F069C1FD
:104AA0001091B00A112309F45AC11092C00A109251
:104AB000BF0A10920E0B1092300B0E94360D89E740
:104AC00093E09093A90A8093A80A8AE793E09093D1
:104AD000AB0A8093AA0A81E080930D0B88E680934D
:104AE0002F0B0E94720D882339F063E578E08BE686
:104AF0009CE00E94991210E00E94861090E0880FBE
:104B0000892F881F990B892B31F06FE778E08BE6AE
:104B10009CE00E949912112309F421C1C1010E9455
:104B2000EA0F9091B10A8CE3E090B20AF12C989FC1
:104B3000E00CF11C11249C810D8110E0989F000D68
:104B4000111D11248091090290910A02029729F502
:104B5000E016F10611F58E8181111FC06FEF7FEF16
:104B60008FEF90E00E94E8028FEF0E943E020E94C9
:104B7000C40681E00E94B4128FEF90E09093080287
:104B8000809307026FEF70E082E00E94B30586E039
:104B900090E090930C0280930B028091AE0A90916A
:104BA000AF0A9C012F5F3F4F3093AF0A2093AE0AAC
:104BB000803D9740D1F48091090290910A020297BA
:104BC000A1F4FF92EF921F930F9386EA98E09F93D0
:104BD0008F930E94C0161092AF0A1092AE0A0F90E7
:104BE0000F900F900F900F900F905FE0E516F1047B
:104BF0000CF0C2C38FE6E81A8AEFF80A8091AC0A7B
:104C00009091AD0A9C012F5F3F4F3093AD0A2093E6
:104C1000AC0A803D9740D1F48091090290910A023C
:104C20000197A1F4FF92EF921F930F9385EE98E006
:104C30009F938F930E94C0161092AD0A1092AC0AF7
:104C40000F900F900F900F900F900F90809109028E
:104C500090910A02019709F082C00E151F0509F014
:104C60007EC08E8181117BC086E090E090930C0223
:104C700080930B0281E00E94D4146FEF7FEF8FEFDF
:104C800090E00E94E80280E00E943E020E94C4067A
:104C900081E00E94B41210E000E08AE0882E912C9E
:104CA0000E94AD072B013C01C801B4010E94382FBE
:104CB0007B015C01892B91F581E00E94D414FF9265
:104CC000EF92E4E2F9E0FF93EF930E94C0162FEF1A
:104CD00030E0D7010E94532F0F900F900F900F904C
:104CE00024E833E040E050E003D6F22EE32E6FEFED
:104CF0007FEF8FEF90E00E94E8028F2D0E943E022E
:104D00000E94C406EF92FF924AE559E05F934F93E9
:104D10000E94C0160F900F900F900F900E944019A4
:104D20008AE090E00E94171880910B0290910C028B
:104D300007970CF425C382E090E090930C028093D7
:104D40000B0280E00E94B4126FEF7FEF8FEF90E0D4
:104D50000E94E80280E00E943E020E94C40681E0B8
:104D600090E09093BB0A8093BA0A1092B90A10920D
:104D7000B80A80910B0290910C028630910509F0DF
:104D800054C381E090E09093BB0A8093BA0A1092DA
:104D9000B90A1092B80A8091BD0A9091BE0A019694
:104DA000883823E1920709F44DC39093BE0A80939B
:104DB000BD0A61E070E080E090E00E947D070E9403
:104DC000950430CD81E020CC87E01ECC82E01CCC65
:104DD0008B81823711F484E017CC88E015CC8B816D
:104DE000823711F483E010CC85E00ECC89E00CCC46
:104DF0008AE00ACC8BE008CC8CE006CC69E177E055
:104E00008BE69CE00E949912FCCC10929B0A1092B7
:104E10009A0A8BE692E09C8B8B8B85E389A385E0D5
:104E20008AA361E085E30E94770561E089A10E9481
:104E30004A058AA18F3F09F4C3C060E00E9477054C
:104E40008AA10E942205892B09F0BAC061E08AA1DB
:104E50000E94770560E08AA10E944A0583E090E005
:104E60000197F1F761E08AA10E944A0562E370E0D0
:104E700080E090E00E947D0740E064E2CE0143962E
:104E80000E94C50940E066E2CE0143960E94C50932
:104E900046E268E4CE0143960E94C50940E864E515
:104EA000CE0143960E94C50949EA66E5CE014396C4
:104EB0000E94C50943E068E5CE0143960E94C509FA
:104EC00048EE6AE5CE0143960E94C50940E46AE2D5
:104ED000CE0143960E94C5094DE362E2CE0143969E
:104EE0000E94C50968E2CE0143960E94AC09982F42
:104EF0009370933039F0482F436068E2CE014396B7
:104F00000E94C5098FEF8BA38CA38DA38EA38FA3C3
:104F100088A7CE0143960E94350B882309F4AACCBA
:104F2000CE0143960E943B09882309F4A3CC82E179
:104F30008DA780E6898384E08A83DE019396FE0153
:104F400033969E2E1F2F8D9181938EA59FA58A1734
:104F50009B07C9F7ED89E150FF0BA3E1B0E0AC0F6F
:104F6000BD1FEA0FFB1FDE011996CE010D962191A0
:104F70002D938A179B07D9F71F92812CB12CA12C56
:104F8000D12CC12CF12CE12C0CE0910140E16EE020
:104F9000CE0143960E94200A082F0F90882339F1F2
:104FA0008DEE92E00E945C04802F0E944B090E94CB
:104FB0005C0461EA72E08BE69CE00E942A115ACC04
:104FC0004FE062E0CE0143960E94C50913E062E320
:104FD00070E080E090E00E947D0762E0CE014396A1
:104FE0000E94AC0984FF48CF115089F745CF8DA5A9
:104FF000823150F180E3898384E08A83292D312F27
:1050000042E0B101CE0143960E94DD09182F8111C3
:1050100015C081E08F93812CB12CA12CFE01BD968F
:105020006F01710104E0910140E36CE0CE01439611
:105030000E94200A182F0F90882341F08CED92E0F7
:105040000E945C04812FB1CF14E0F8CFF101AE01D2
:105050004F5E5F4F90E080E02191203229F0DC012B
:10506000AA58B54F2C9301964E175F07A9F766E72C
:105070007AE08BE69CE00E94F812E6E7FAE084E230
:10508000DF011D928A95E9F780E589A71AA69E019E
:10509000255D3F4F42E0BE01675D7F4FCE014396E5
:1050A0000E94DD09811113C01F92812CB12CA12C0B
:1050B000D12CC12CF12CE12C04E09E01275D3F4F47
:1050C00040E36CE0CE0143960E94200A0F9048E036
:1050D00060E1CE0143960E94230BCCCB039709F0ED
:1050E000EDCB1092BB0A1092BA0A81E090E0909347
:1050F000B90A8093B80A0E94CF1C8823B9F0809126
:10510000B30A9091B40AA091B50AB091B60A892B5E
:105110008A2B8B2B59F40E94AD076093B30A7093CE
:10512000B40A8093B50A9093B60AC8CB0E94CF1CEC
:10513000882369F0C090B30AD090B40AE090B50A11
:10514000F090B60AC114D104E104F10469F40E949C
:10515000CF1C8111B3CB1092B30A1092B40A1092F3
:10516000B50A1092B60AAACB0E94AD076C197D0948
:105170008E099F09683873418105910508F49ECB1B
:1051800080910B0290910C02019690930C028093F7
:105190000B0294CB821B930BB4CB82E090E0B6CB96
:1051A000083582E0180708F41FCC003835E21307F1
:1051B00008F44FC1C0900502D09006020D2C000CDF
:1051C000EE08FF08C8016AE070E03ED69B0150E09F
:1051D00040E0205C33404109510968E270E080E022
:1051E00090E06C197D098E099F0951D32CE231E0C2
:1051F00040E050E07DD3C20ED31EE41EF51EC092E7
:105200000702D0920802DF92CF9243EB59E05F93FE
:105210004F930E94C016609107027091080282E0CD
:105220000E94B3050F900F900F900F90073351E33A
:10523000150709F009CC80E00E94B41205CC3DE2CC
:10524000831631E09306A104B104A9F0750164014D
:105250000E94AD076419750986099709683E734075
:105260008105910508F022C161E070E080E090E0E6
:105270000E947D07EDCF81E090E090930C02809337
:105280000B0249C1059709F051C080E00E94D61277
:1052900080E00E94B41266E378E08BE69CE00E9416
:1052A000F812F12CE12C61E070E080E090E00E94C7
:1052B0007D0788EEE81683E0F806B9F461E578E04A
:1052C0008BE69CE00E94F812A8E0B0E0B0930C02DC
:1052D000A0930B0281E00E94D414E5E0F0E0F0938B
:1052E0000C02E0930B02F12CE12C0E9440198CE29D
:1052F00091E00E94171880910B0290910C02069782
:105300007CF184E090E090930C0280930B0263EABE
:1053100072E08BE69CE00E949912C8018855924089
:1053200089329342C8F081E00E94B4120E94AD0716
:1053300028A939A94AA95BA9621B730B840B950B99
:10534000643671058105910578F461E070E080E0D4
:1053500090E00E947D07EACF81E00E94D612E6CF5E
:105360002FEFE21AF20A9FCF0F5F1F4F083331E38E
:10537000130709F002CBD6C09FE0E91AF1083ECC32
:10538000A114B10451F50115110539F1C801B40199
:105390006FD527ED30E0DB0186D524E833E040E02F
:1053A00050E0A6D269017A0198E2C90ED11CE11C35
:1053B000F11CC0920702D0920802B60182E00E945E
:1053C000B305DF92CF92A8E7B9E0BF93AF930E94F5
:1053D000C0160F900F900F900F900E94AD076419A8
:1053E000750986099709643671058105910538F4B8
:1053F00061E070E080E090E00E947D07EECFAB2896
:1054000031F463EA72E08BE69CE00E9499120F5F30
:105410001F4F0932F3E21F0709F042CC86E090E00B
:1054200090930C0280930B029ACC07970CF4B3CCA8
:1054300082E090E090930C0280930B0280E00E9447
:10544000B412A9CC1092BE0A1092BD0A1092BC0AE6
:10545000B0CC68E979E08BE69CE00E9499120E944A
:105460006614882309F4F0CA62EC77E08BE69CE0CE
:105470000E94991280E00E94B41280E00E94D6122D
:10548000A9E0B0E0B0930C02A0930B0240E050E022
:1054900068E170E090E080E00E947F028AE00E9474
:1054A0003E020E94C406C12CD12C76010E94AD0799
:1054B0002B013C0146015701BFEF8B1A9B0AAB0A37
:1054C000BB0AFF92EF92DF92CF92ECE0F8E0FF93FD
:1054D000EF930E94C01681E00E94D4140E946614CB
:1054E0000F900F900F900F900F900F908111A7CEFB
:1054F00081E00E94B41281E00E94D61284E090E024
:1055000090930C0280930B0260E070E0CB010E944C
:10551000E8020E94C40680910B0290910C02019750
:1055200009F092CA80910B0290910C020196ADCACB
:1055300082EB9DE00E9422118091C10D9091C20DDD
:1055400054D58091BE0D9091BF0D97FD03C060E0D2
:105550000C9477050895FC0188279927E8942191F8
:105560002032E9F3293010F02E30C8F32B3239F015
:105570002D3231F4689403C022D0820F911D219105
:1055800020532A30C8F31EF4909581959F4F0895BB
:10559000FB01DC0102C005900D9241505040D8F74C
:1055A0000895BB272A3051F4992342F4BDE2909527
:1055B0008095709561957F4F8F4F9F4F09C07AE01E
:1055C000979F902D879F802D910D11240895BB27C3
:1055D000FA01A62F6217710581059105330B30FB87
:1055E00066F0AA27660F771F881F991FAA1FA217A8
:1055F00010F0A21B63953850A9F7A05DAA3308F0FC
:10560000A95DA19336F7B111B1931082CA0100C010
:10561000DC01FC01672F71917723E1F7329704C019
:105620007C916D9370836291AE17BF07C8F30895A4
:1056300040D008F481E00895E89409C097FB3EF457
:1056400090958095709561957F4F8F4F9F4F9923CF
:10565000A9F0F92F96E9BB279395F695879577954D
:105660006795B795F111F8CFFAF4BB0F11F460FF0D
:105670001BC06F5F7F4F8F4F9F4F16C0882311F065
:1056800096E911C0772321F09EE8872F762F05C079
:10569000662371F096E8862F70E060E02AF09A9514
:1056A000660F771F881FDAF7880F9695879597F909
:1056B0000895990F0008550FAA0BE0E8FEEF1616A3
:1056C0001706E807F907C0F012161306E407F507F6
:1056D00098F0621B730B840B950B39F40A2661F06A
:1056E000232B242B252B21F408950A2609F4A1400D
:1056F000A6958FEF811D811D08950BD078C069D0CC
:1057000028F06ED018F0952309F05AC05FC011241C
:10571000A2C07ED0A0F3959FD1F3950F50E0551F06
:10572000629FF001729FBB27F00DB11D639FAA27F6
:10573000F00DB11DAA1F649F6627B00DA11D661F45
:10574000829F2227B00DA11D621F739FB00DA11D66
:10575000621F839FA00D611D221F749F3327A00D20
:10576000611D231F849F600D211D822F762F6A2FBC
:1057700011249F5750408AF0E1F088234AF0EE0F41
:10578000FF1FBB1F661F771F881F91505040A9F74E
:105790009E3F510570F014C05EC05F3FECF3983E31
:1057A000DCF3869577956795B795F795E7959F5FB5
:1057B000C1F7FE2B880F911D9695879597F908954F
:1057C00097F99F6780E870E060E008959FEF80ECB4
:1057D000089500240A941616170618060906089557
:1057E00000240A9412161306140605060895092EBD
:1057F0000394000C11F4882352F0BB0F40F4BF2B2C
:1058000011F460FF04C06F5F7F4F8F4F9F4F08956B
:1058100057FD9058440F551F59F05F3F71F0479561
:10582000880F97FB991F61F09F3F79F08795089546
:10583000121613061406551FF2CF4695F1DF08C065
:10584000161617061806991FF1CF86957105610582
:1058500008940895E894BB2766277727CB0197F92A
:105860000895F999FECF92BD81BDF89A992780B528
:105870000895262FF999FECF1FBA92BD81BD20BD94
:105880000FB6F894FA9AF99A0FBE01960895DB01C3
:105890008F939F9349D0BF91AF91A29F800D911D8F
:1058A000A39F900DB29F900D11240895A1E21A2E8E
:1058B000AA1BBB1BFD010DC0AA1FBB1FEE1FFF1FB4
:1058C000A217B307E407F50720F0A21BB30BE40B04
:1058D000F50B661F771F881F991F1A9469F760954B
:1058E0007095809590959B01AC01BD01CF01089505
:1058F000052E97FB16F400940FD057FD05D0D6DF88
:1059000007FC02D046F408C050954095309521958B
:105910003F4F4F4F5F4F08959095809570956195DB
:105920007F4F8F4F9F4F089509D0A59F900DB49F33
:10593000900DA49F800D911D11240895A29FB00188
:10594000B39FC001A39F700D811D1124911DB29FB3
:10595000700D811D1124911D08955058BB27AA2751
:105960000ED045CF36DF30F03BDF20F031F49F3FE3
:1059700011F41EF42BCF0EF4E095E7FB21CFE92FB5
:1059800047DF80F3BA17620773078407950718F09B
:1059900071F49EF55FCF0EF4E0950B2EBA2FA02D7B
:1059A0000B01B90190010C01CA01A0011124FF27CC
:1059B000591B99F0593F50F4503E68F11A16F040C7
:1059C000A22F232F342F4427585FF3CF46953795C6
:1059D0002795A795F0405395C9F77EF41F16BA0B8B
:1059E000620B730B840BBAF09150A1F0FF0FBB1F39
:1059F000661F771F881FC2F70EC0BA0F621F731F82
:105A0000841F48F4879577956795B795F7959E3FDE
:105A100008F0B3CF9395880F08F09927EE0F97956C
:105A2000879508950CD0E3CEDBDE40F0D2DE30F077
:105A300021F45F3F19F0C4CE51110DCFC7CEE8DE7F
:105A400098F39923C9F35523B1F3951B550BBB2745
:105A5000AA2762177307840738F09F5F5F4F220FF2
:105A6000331F441FAA1FA9F333D00E2E3AF0E0E8EB
:105A700030D091505040E695001CCAF729D0FE2F37
:105A800027D0660F771F881FBB1F261737074807C9
:105A9000AB07B0E809F0BB0B802DBF01FF2793587F
:105AA0005F4F2AF09E3F510568F08ACED4CE5F3F0B
:105AB000ECF3983EDCF3869577956795B795F79567
:105AC0009F5FC9F7880F911D9695879597F908955F
:105AD000E1E0660F771F881FBB1F621773078407FB
